:020000040001F9
:10B00000882D002035B101004FB1010051B1010080
:10B010000000000000000000000000000000000030
:10B0200000000000000000000000000053B101001B
:10B03000000000000000000055B1010057B1010000
:10B0400059B1010059B101006DBC010059B10100B5
:10B0500059B1010000000000A9B9010059B1010077
:10B0600059B1010029BC010059B1010059B10100D9
:10B0700059B1010059B1010059B1010059B10100A4
:10B0800059B1010041BB010059B1010059B10100A2
:10B0900061BB010059B1010069BB010059B1010058
:10B0A00059B1010059B1010000000000000000008A
:10B0B0000000000000000000000000000000000090
:10B0C0000348854600F04CFC00480047BDD601000F
:10B0D000882D0020401E00BF00BF00BF00BF00BF82
:10B0E00000BF00BF00BF00BF00BF00BF00BFF1D165
:10B0F00070470000401E00BF00BF00BF00BF00BF80
:10B1000000BF00BF00BF00BF00BF00BF00BFF1D144
:10B1100070470000401E00BF00BF00BF00BF00BF5F
:10B1200000BF00BF00BF00BF00BF00BF00BFF1D124
:10B13000704700000321094802680A43026008487A
:10B1400002680A4302600748804707480047FEE755
:10B15000FEE7FEE7FEE7FEE7FEE70000240500400D
:10B160005405004089BB0100C1B0010030B50B4659
:10B17000014600202022012409E00D46D5409D42D1
:10B1800005D31D469540491B254695404019154657
:10B19000521E002DF1DC30BD70B50024254600287C
:10B1A00001DA01244042002901DA01254942FFF772
:10B1B000DDFFAC4200D04042002C00D0494270BDBF
:10B1C00003460B439B0703D009E008C9121F08C0C0
:10B1D000042AFAD203E00B780370401C491C521E6B
:10B1E000F9D27047D2B201E00270401C491EFBD276
:10B1F00070470022F6E710B513460A460446194682
:10B20000FFF7F0FF204610BDF8B502464A40D40FC4
:10B2100042004B0052085B089A4202D2024608469E
:10B2200011464A0023D0C30D4A00DDB2120EAD1AFA
:10B23000202D35DA49020126490AF6058A19002C23
:10B2400000D0524220214F1B1146B9402A4110180C
:10B25000C20D9A4221D0002C17D0012D08DCDA054E
:10B26000801AD20F8019D207DBB200F034FAF8BD91
:10B27000DA05801A012340001B06C01880185A42C4
:10B280008018CA0F1043490007E04908C20711435C
:10B29000DA05801A80194008801800F014FAF8BD09
:10B2A00061000122511A001BF7E70122D207514029
:10B2B000AAE70122D2075040A6E7024670B54A40ED
:10B2C000D30FDB0740002DD04A002AD0010E140E08
:10B2D000000212020919400A520A8418E5010446C4
:10B2E0005443000A120A2E045043A4194219200C98
:10B2F000C543AA18120C0125AD03521C52191204A1
:10B300007F39240400D0521C104301D44000491E50
:10B31000C2B20C06C0092018401C4008802A02D086
:10B3200003E0002070BD40084000002900DA002042
:10B33000184370BD420005D04200120E52428A42AC
:10B3400001DB00207047C90508187047F0B50746B3
:10B350000846584087B0C00F049048000E46590078
:10B3600040084908BC1A884105D2384631461E4675
:10B3700017460B4602465800400810434CD0300D8B
:10B38000039040055900400D490D0590401A029068
:10B39000402872DA18030121000B090508430190C7
:10B3A00004980092002805D001995242002088415B
:10B3B00000920190029840210A1A0199009800F029
:10B3C0005FF905460C466B4607CB00F069F9C019DA
:10B3D0007141039A0E0D0023D71756401A467A4042
:10B3E000164344D0049A002A2DD0029A012A039AC7
:10B3F00015DC1205C01A914101263605001C714169
:10B40000D20F059ED2070093019202962A46234648
:10B4100000F0A7F907B0F0BD38463146FAE7160547
:10B42000224A0F46B218C01AB74101210905001C73
:10B430004F4100187F41114618187941E20F10431F
:10B440006D19644113E0E2076D0815436408C207F3
:10B450001443039A01261205C01A91413605001CB7
:10B460007141CE07400830434908C01851412A466F
:10B47000234600F069F9CDE7FFE704980122400078
:10B48000C117121A00238B4104983146C417381A89
:10B49000A141EEE730B40124E407634030BC55E736
:10B4A00030B40124E407614030BC4FE70000E0FF06
:10B4B000F0B51FB488B00B99099800244840099949
:10B4C000C00F490049080991C0070B990090490035
:10B4D00049080B9109990898A64608431CD00B9976
:10B4E0000A98084318D0099801244000420D4800EA
:10B4F000410D099824050003000B204309900B9887
:10B500000003000B20430B9050181C4940180022E8
:10B5100001901446104605E0002001460DB0F0BD34
:10B52000032801DA034600E003239C46C11A0AAE51
:10B530000AE05F0008ADED5B4F00F75B7D4300273D
:10B54000AA187C41491C5B1E6145F2DD410004AB39
:10B550005A522104120C0A43240C401C0828DFDB39
:10B56000019802900099704601910090059B049A01
:10B570000799069800F0F5F8D0E700000DFCFFFFF2
:10B5800010B500229623114600F0A5F810BDC20F99
:10B59000410040020123400ADB05D207090EC01812
:10B5A0007F2901DA00207047962903DC9623591A77
:10B5B000C84001E096398840002AF4D040427047E4
:10B5C000C20FD207400040080BD0C10D0723DB019A
:10B5D000C91840020905400A1143C2084007114337
:10B5E0007047002001467047CB0FDB07490010B5BC
:10B5F000490802460A4307D00A0D07240903E4015B
:10B60000090B121B002A01DC002010BDC900440FE9
:10B610000C43C100E018D205801800F054F810BDAA
:10B62000F0B51FB40646002082B0054640240191C3
:10B6300000901BE0019922460F46304600F0A2F927
:10B64000049A059B801A994110D310461946224648
:10B6500000F016F8361A8F4101972246012000218A
:10B66000009F00F00DF838184D4100902046641EF0
:10B670000028DFDC019B00982946324607B0F0BD68
:10B6800010B5202A04DB0146203A9140002010BD6D
:10B69000914020239C1A0346E3401943904010BD7B
:10B6A00010B5202A06DBCB170846203A1041C117F7
:10B6B0000B4306E00B461341D0402024A21A9140D0
:10B6C0000843194610BD002904DA401C490001D185
:10B6D00040084000704770B40024050C05D11024C8
:10B6E000000402D1002921D01124050E01D100024D
:10B6F0000834050F01D10001241D850F01D1800000
:10B70000A41C002801DB4000641C002908D020256F
:10B710002E1B0D46F540A14000D0012129430843CE
:10B7200001061B1B000ADB1D02D5002070BC704700
:10B73000DB05181880180029F8DA401C4900F5D1FB
:10B7400070BC40084000704710B5002B08DA002498
:10B75000401C614192185B411A4301D140084000EE
:10B7600010BDF0B51FB482B005460C0003D00846EA
:10B7700000F090FA02E000F08DFA203002460090CE
:10B7800021462846FFF77CFF049B059A04460F4696
:10B7900018431143084314D0184610431BD0009897
:10B7A00040210A1A1846059900F0ECF805460E46A5
:10B7B000009A05990498FFF763FF084305D001201C
:10B7C00004E02046394607B0F0BD0020C11705430C
:10B7D0000E432C43374300990E986305401A7905B0
:10B7E000E40A00220C43FD0A0A3002D5002001467B
:10B7F000E9E70105101969410C9C0D9D001969418B
:10B80000FFF7A2FFDFE70000F0B50C465C4085B013
:10B81000E40FE40703944C000026640859009446A2
:10B82000490802460296224321D062460A431ED0AE
:10B830006200570D4A000E032303550D01240246F2
:10B840002C492405781B1B0B360B40182343264339
:10B85000614600901C46501AB44103D30098401C26
:10B86000009002E0921800985B41002803DA002063
:10B87000014605B0F0BD00200121090507468646B6
:10B8800011E064461D46141BB54106D36546521BA4
:10B89000B341744607430C43A646CD074008490808
:10B8A000284392185B4105460D43EAD110461843E0
:10B8B00013D06046194650407140084306D0604698
:10B8C000101AB34106D20122002306E00022012310
:10B8D000DB0702E00122D2435310009874460105B1
:10B8E000381C6141029C039D00196941FFF72CFF40
:10B8F000BFE70000FD0300004A0009030123090B14
:10B900001B0519430A4B10B5520D9A4202DA00206A
:10B91000014610BD064B34339A4203DC9A1A00F0FC
:10B9200031F810BD034BD218FFF7AAFE10BD00007E
:10B93000FF030000CDFBFFFF10B5002904DB01244D
:10B94000E40740428C412146002B04DB1C460123C6
:10B95000DB075242A341994200D1904210BD000042
:10B96000064C0125064E05E0E36807CC2B430C3C52
:10B9700098471034B442F7D3FFF7A6FB18F1010043
:10B9800038F1010010B5202A04DB0846203AD040E7
:10B99000002110BD0B46D340D0402024A21A914074
:10B9A0000843194610BD0000F0B50025FF248BB0F8
:10B9B000013401262F460195204602F089FA00281D
:10B9C00008D047484068304204D04648002120183B
:10B9D00035430160241D76007F1CA4B2042FEBD3F5
:10B9E000FF207D3002F074FA002807D03E48002185
:10B9F0000160400705433D48006901903C4C280721
:10BA000012D0012700262F420AD03A48B20011185E
:10BA100008690969C004C00E8903A258890F9047BC
:10BA20007F00761C042EEED3002D57DA00200590FF
:10BA3000401E4DE0A119403108788506AD0E42B296
:10BA4000521C39D00121A940089A0091114233D0EB
:10BA500080090390284601F02BFA800020580490BA
:10BA6000002802D10398032826D1039800990328BF
:10BA700002D10598084305901F4AA8008018006865
:10BA8000019A8003800F114202D0022802D013E0F5
:10BA9000032811D10399032907D102281CD00221C0
:10BAA000284602F005FA7F1CFFB20498002803D054
:10BAB000049A284603999047761C042EBAD3002F87
:10BAC0000CD00A4800690199884207D00190059876
:10BAD00000273E460890ADE70321E1E70BB0F0BD3B
:10BAE00000630040006000407C61004000050050A1
:10BAF0001425002000650040000700508307FF2246
:10BB0000DB0E9A408907090E994000280BDA0007DE
:10BB1000000F0838830808489B001818C36993432E
:10BB20000B43C3617047830804489B001B181868C7
:10BB3000904308431860704700ED00E000E400E027
:10BB400010B506490020086048608860C860034955
:10BB500040390860486002F093FE10BD401101407A
:10BB600010B502F0F1FB10BD10B506484068002882
:10BB700005D08047002801D000F056FE10BD01F02E
:10BB80003DFC10BD0421002010B501F081FC00280F
:10BB900005D01F491D484860C8131E4988611E48CA
:10BBA000018CC9B201290BD1828C120708D1028DF8
:10BBB0001206120F042A03D1828D1206120F0AD028
:10BBC000012921D1818C09071ED1018D0906090F98
:10BBD0000A2904D007E0114A01219160F5E7828D1E
:10BBE0001206120F05D00D290ED1808D0006000F10
:10BBF0000AD10B480168012904D00A490160016893
:10BC00000129FCD1C021416110BD0000DFFF07C048
:10BC100000050040006C0040C00F00F0000600402E
:10BC200000EC064075930000F8B50E4C0427002583
:10BC3000BE03A8003146A940FF3041302258002AF7
:10BC40000BD003221202A21852680A4205D000212A
:10BC50002150054A5168126890476D1CEDB2BD42F3
:10BC6000E7D3F8BD009000405C25002010B503F03C
:10BC700069F810BD0FB410B503A9044B044A02982B
:10BC800000F000F910BC08BC04B018476FD10100E7
:10BC9000002100202021020C01D010211046020AB0
:10BCA00001D010460839020901D01046091F820848
:10BCB00001D01046891E420801D0881E7047081A1C
:10BCC000704730B47446641E2578641CAB4200D2C1
:10BCD0001D46635D5B00E31830BC184702E008C8EE
:10BCE000121F08C1002AFAD170477047002001E0F6
:10BCF00001C1121F002AFBD170470000202804DA7E
:10BD0000012181400348014201D0012070470020F9
:10BD100070470000FC06FFBC042805D2002803D0B1
:10BD2000022801D00120704700207047F0B51FB4F1
:10BD300084B007980699020D014314D04A484B4934
:10BD40001018484305140F9801280E981CD0281A83
:10BD5000401C0024464E474900940191029000285F
:10BD600014DA474227E00F98012443A3012808D0A2
:10BD7000002104980F9A84600360C260416009B09A
:10BD8000F0BD0E98C143F4E74042E2E7074612E0F7
:10BD9000F80707D02246334601990098FFF788FB41
:10BDA000019100902246334610461946FFF780FB6A
:10BDB00004460E467F10002FEAD10298019B00280E
:10BDC000009A0799069802DAFFF772FB01E0FFF785
:10BDD0001BFD04460E460022284BFFF7ADFD03D89D
:10BDE0000020C043014607E00022254B2046314693
:10BDF000FFF7ACFAFFF780FD102409E0002C0ADB06
:10BE00000A220023FFF70CFC059B30321A55641EF2
:10BE100002460A43F2D11122641C059B121B1C1915
:10BE20000F9B012B03D0012308430ED10AE00843E6
:10BE300004D011200E9000200F9084E70E98151A60
:10BE40006D1E0BE00E98824202DD00236D1C03E0A4
:10BE5000824201DA00236D1E002BEED004980F9968
:10BE60008260C16030C08AE701FCFFFF104D000016
:10BE7000000024400000F03F300000000000F043CC
:10BE80000000E03FFFB597B00646002518E22528E0
:10BE900077D100242746FD49049400E00443761C32
:10BEA00032780120203A90400842F7D130782A2891
:10BEB0000ED00222307801463039092916D804996B
:10BEC0000A235943303940181443761C0490F1E793
:10BED000189802C804911890002904DA0120400340
:10BEE00004434842049002200443761C30782E28F4
:10BEF00014D1042004437078761C2A2809D118989C
:10BF0000761C80C8189009E00A214F43303FC719BA
:10BF1000761C3078014630390929F5D930786C28FB
:10BF200010D006DC4C281AD068280ED06A2817D109
:10BF300004E0742813D07A2812D110E001204005C3
:10BF400004430CE00121090501E0032109050C432C
:10BF50007178814203D1012000052418761C761CDB
:10BF60003078119066280BD013DC58287DD009DC7E
:10BF700000287BD04528F6D04628F4D047281AD18F
:10BF8000A5E118E0632835D0642870D0652812D167
:10BF90009DE170286CD008DC6728F1D069287BD03F
:10BFA0006E280DD06F2806D1BAE073282ED07528E0
:10BFB00071D0782859D01A9A199990476D1C7EE152
:10BFC0006002400F022809D003280DD004281898D9
:10BFD00001680DD00D60001D189070E11898EA17E7
:10BFE00001680D604A60F6E7189801680D80F2E775
:10BFF0000D70F0E718986A4601781172001D1890CC
:10C000000020507202A80090012005E0189802C894
:10C01000189000200091C04361070DD5002101E078
:10C020000199491C0191B94212DA8142F8DB009A68
:10C03000515C0029F4D10BE0002101E00199491C79
:10C0400001918142FADB019A0099895C0029F5D1BE
:10C05000019904981A9B471A21463846199A00F00C
:10C0600097FA0199401945180BE04FE02CE113E0D5
:10C070004EE0009800990078491C00911A9A19998D
:10C0800090470198401E0190401CF2D1214638464D
:10C090001A9B199A10E137E00A20002100900191C3
:10C0A0006002410F022907D0189A01CA1892C217DC
:10C0B0009446032908D00AE01898C01DC108C90099
:10C0C00005C91891944607E000B2C21794460429A6
:10C0D00002D140B2C1178C4600226146944506DA6F
:10C0E0000A460021404291418C462D2102E0210563
:10C0F00004D52B216A461173012103E0E10701D029
:10C100002021F7E7029155E00A200AE0102008E01C
:10C11000102000900021042004430191082703E02F
:10C1200008200021019100906002410F022907D0F0
:10C13000189A01CA189200229446032908D008E0F0
:10C140001898C01DC108C90005C91891944603E09C
:10C1500080B2042900D1C0B200210291210729D563
:10C160001199702906D0009A1021019B4A401A4368
:10C1700005D00EE040216A461173012108E06146B6
:10C18000014306D030216A4611731199517302217F
:10C190000291009A0821019B4A401A430AD1614644
:10C1A000014301D1610705D530216A461173012190
:10C1B0007F1E02911199582904D035A10E910DA925
:10C1C0000D910DE037A1F9E76146019B009AFFF759
:10C1D00027FA0E9B8C469B5C0D9A521E0D92137093
:10C1E00061460143F0D10D9805A9081A203001904D
:10C1F000600703D501200004844300E00127019873
:10C20000874201DD381A00E00020019900904118B2
:10C21000029809180498401A0490E00306D42146B5
:10C220001A9B199A049800F0B3F94519002706E003
:10C2300003A81A9AC05D199990476D1C7F1C02983B
:10C240008742F5DBE0030CD521461A9B199A049826
:10C2500000F09EF9451904E01A9A30201999904788
:10C260006D1C0099481E00900029F5DC08E00D982F
:10C270000D990078491C0D911A9A199990476D1CD7
:10C280000199481E01900029F1DC63E109280100B1
:10C29000303132333435363738396162636465663C
:10C2A00000000000303132333435363738394142FE
:10C2B000434445460000000000F05AF94519761C39
:10C2C0003078002800D0E2E528461BB0F0BD6007BA
:10C2D00000D406271898C01DC108C90048680A681C
:10C2E0000831C30FDB071891190001D09CA108E0A9
:10C2F000210501D59BA104E0E10701D09AA100E04E
:10C300009AA1430011985B08109165280CD006DCB7
:10C31000452809D046281DD0472841D141E066284C
:10C3200018D067283CD13CE00021112F01DB1120FF
:10C3300000E0781C0191009008A911A8FFF7F6FC15
:10C34000139905910021119A15927F1C129801975B
:10C35000009150E00120C00703900120019008A93E
:10C36000009711A8FFF7E2FC139A14990592002296
:10C37000119B009212981593059A0192002901D001
:10C38000104602E0791C40180190381A01D5019836
:10C3900004E04042401E0090781C0190C01B0290B7
:10C3A00043E0012F00DA01270021112F01DD1120C8
:10C3B00000E038460191009008A911A8FFF7B6FCEB
:10C3C00013990591119A00211298159200910197E5
:10C3D00021070CD40599B94201DB019900E00191D4
:10C3E000012904DD159A491E515C302906D0B84256
:10C3F00001DA011D05DA0121029115E00199491EBA
:10C40000EDE7002805DC0099411800910199091A0F
:10C4100003E0019A411C914200DD01910099401A0C
:10C42000401C02900120C0070390200706D4029907
:10C430000198814202DB0020C0430290002069463F
:10C44000C87707AF012103980337C907884224D072
:10C45000022011902B201290039800280CDA404201
:10C4600003902D20129007E00A210398FEF77EFE2C
:10C4700030317F1E039039701199481E11900029A8
:10C48000F2DC03980028EFD1791E129808703078FA
:10C49000202108404530BF1E387006A8C01BC01DB3
:10C4A000039010980078002800D0012001994118CD
:10C4B0000298C0170918039809180498401A401EDA
:10C4C0000490E00306D421461A9B199A049800F0C0
:10C4D0005FF8451910980078002803D01A9A199926
:10C4E00090476D1CE00324D521461A9B199A0498A5
:10C4F00000F04EF845191CE00098002807DB009971
:10C500000598884203DD1598405C199901E0199956
:10C5100030201A9A904700986D1C401C0090029899
:10C52000401E0290002804D11A9A2E201999904793
:10C530006D1C0199481E01900029DDDC05E038786A
:10C540001A9A7F1C199990476D1C0399481E0390F5
:10C550000029F4DC21461A9B199A0498ACE60000E5
:10C560002D0000002B000000200000000000000053
:10C57000F8B5044600251E461746880404D405E095
:10C5800039462020B0476D1C641EF9D52846F8BDF9
:10C59000FFB50446002581B01E46C80301D53027EB
:10C5A00000E02027880404D505E038460399B04709
:10C5B0006D1C641EF9D5284605B0F0BDF7B584B0F2
:10C5C0000025168807461580406B1446002813D0B6
:10C5D00003780598032E51D302210170218811227E
:10C5E000491C89B2218042542188491C89B221808A
:10C5F00043542088401C2080386B00281DD00546FD
:10C600002088059902461232B24237D811220A54C4
:10C6100020881022401C80B220800A542088401CB0
:10C6200020800F202A5C2388401ECA54228840B2F2
:10C63000521C22800028F5DA00253846203002906E
:10C64000807B002806D033462246059900F044FF3F
:10C65000050014D10298407B002806D032462146BE
:10C66000059800F0EFFA050009D1B878002823D02A
:10C67000059886462088001DB04202D90C2007B0DC
:10C68000F0BD684679DF0028F9D121880320724681
:10C69000505420881921401C80B2208011542088D9
:10C6A0007146401C80B2208041186846008802F024
:10C6B000DDFB218840182080F878002817D02188D9
:10C6C00003230A46FB56C91C0598B142D6D802215D
:10C6D000815421880122491C89B221804254218839
:10C6E000491C89B2218043542088401C20807868EE
:10C6F000002817D021880023C3560A46C91C059874
:10C70000B142BBD80221815421880A22491C89B236
:10C71000218042542188491C89B2218043542088B9
:10C72000401C2080388900280AD0009438460196A1
:10C73000062202210830059B02F00DFC05009ED167
:10C74000388A00280AD0009438460196072203212F
:10C750001030059B02F0FFFB050090D1388B0028BC
:10C760000AD0009438460196152214211830059BF2
:10C7700002F0F1FB050082D1386A002806D033466A
:10C780002246059900F03AFC0500D8D1786A0028C5
:10C7900006D033462246059901F04CF80500CED16B
:10C7A0000298007B002807D0334622463846059978
:10C7B00001F0F8FC0500C2D13878002807D03346D4
:10C7C00022463846059901F0F5F80500B7D128460C
:10C7D00055E7000010B586B018216846FEF709FD40
:10C7E000002468460470019404726421018244822A
:10C7F00073DF002801D000F017F8012102488904F6
:10C800008160C46006B010BD00050050BFF34F8FBB
:10C8100004490348C860BFF34F8F00BFFDE7000025
:10C820000400FA0500ED00E00EB500210290009131
:10C830006A4601910148FFF7E9FF0EBD0140000083
:10C8400010B58268C368934203D000F07DFC0020DD
:10C8500010BD052010BD002906D0002A02D0531EAD
:10C86000134203D0092070470E2070470160838077
:10C8700000218160C1600846704710B58268C368B6
:10C880009A1A83889A4203D800F068FC002010BDF1
:10C89000042010BD094B9B68002B07D0002A07D04D
:10C8A000002805D00068037C002B03D008207047C7
:10C8B000072070474174426100207047E02000204B
:10C8C000FFB59007002581B014460E46002832D1EE
:10C8D0001B4F002C31D001F0BDFB04987861032080
:10C8E000387033461821224600204B43BC60183470
:10C8F000C10089180D704D708E704C601C19401C61
:10C900000328F5DBFD607D7001240E48BD70240511
:10C91000046003211420FFF7F1F80B4804600B4C6E
:10C920000198A06003211120FFF7E8F860683861E2
:10C93000002005B0F0BD0720FBE7BD60FBE700006D
:10C94000E020002080E200E000E100E0001501406E
:10C95000FEB50D461B4917468968044600292AD0B2
:10C96000002C28D0052D01D20720FEBD60690028CB
:10C9700021D0607C012820D0002602F0AFFAC00050
:10C980001049019089684018694602F0D1FA0028E0
:10C9900015D0012101700C49446049680830E2C09B
:10C9A000084901988968411868460078487001F084
:10C9B0000DFD0020FEBD0820FEBD2E46DDE7042053
:10C9C000FEBD0000E020002000150140F8B5134D29
:10C9D0000446A96800291CD0002C1AD060690028E0
:10C9E00017D00026267402F079FAC700A8686946B5
:10C9F000381802F09DFA00280DD002210170446021
:10CA0000A868391868460078487001F0DFFC3046A5
:10CA1000F8BD0820F8BD0420F8BD0000E02000208B
:10CA200070B50446224888B01E460D0042601CD0F6
:10CA3000A888296882B21F48FFF70DFF002815D18A
:10CA4000A889A96882B21B481030FFF704FF0028AC
:10CA50000CD1202218496846FEF7B2FBA068069068
:10CA60002079002804D0012103E0072008B070BD20
:10CA700000216846017506776079002800D00E20F5
:10CA800069464875E0780290A0780390207801907C
:10CA9000607800900949684601F0ACF80028E5D1BB
:10CAA00001F032F902480121401C01F007F9DDE7ED
:10CAB000C8200020F4240020CCF0010081EC01000B
:10CAC00010B501460A48FFF7D8FE04000ED101F068
:10CAD000C1F900280AD107490548FFF7B1FE00282F
:10CAE00004D10121034801F069F90446204610BD34
:10CAF00004250020C8200020F0B50C4693B01F216B
:10CB00006A461180072600279180002809D0C17845
:10CB100049070DD502A9FFF751FD002809D102AD43
:10CB200001E000251780002C0ED0E078002802D00C
:10CB3000304613B0F0BD01AA0AA92046FFF73EFD1A
:10CB40000028F6D10AAA02E06846002287806846DB
:10CB50008088C3B268460088C1B2284672DFE8E721
:10CB600070B5054601461C220E48FEF729FB0E4C07
:10CB7000002626702968002906D00822201DFEF70D
:10CB80001FFB201D7ADF02E00748001D7BDF002825
:10CB900007D1401E60806670044A00210448FFF7F8
:10CBA00079FE70BDD8240020AC20002079EE010071
:10CBB000B8F00100F8B5214C028800271E4DE68927
:10CBC000102A15D01E49112A21D0122A2DD0502A00
:10CBD0001CD1C288801DB24218D14289022A15D1C7
:10CBE000427B037B10021843C007C00F0CD112E038
:10CBF0008188698001461048082218310C30FEF700
:10CC0000DFFA6F70002E01D100F040FAF8BD00206D
:10CC1000C04368806F700868FFF7D8FE0028F5D021
:10CC2000A1690029F2D08847F8BD0822811802487E
:10CC30000C30FEF7C5FAE7E7AC200020D82400202E
:10CC4000B8F001007CB5054608880C4609309042D2
:10CC500001D90C207CBD684671DF0028FAD12188FB
:10CC60000820685420881B21401C80B22080295451
:10CC7000208800A9401C80B2208040190622013182
:10CC8000FEF79EFA20886946801D80B220800978D0
:10CC9000002900D0012129542088401C2080002038
:10CCA0007CBD000010B5044601F02AF92046FFF7CC
:10CCB00081FF2146014800F07BF810BD542400207C
:10CCC00003B585B004216A461182828B0D498A42E0
:10CCD00016D02021095C002912D000210091019179
:10CCE00002910391012269468A70428A0A8006A94C
:10CCF000039104A90291808B6946A6DF07B000BDAD
:10CD00000820FBE7FFFF000003B585B004216A4659
:10CD10001182828B0D498A4215D0817F002912D061
:10CD200000210091019102910391012269468A70CC
:10CD300042880A8006A9039104A90291808B694662
:10CD4000A6DF07B000BD0820FBE70000FFFF0000E2
:10CD500010B50446002086B0C043A08312480FC817
:10CD600003936B4607C321461A31684663DF0028E8
:10CD700017D1A17E684681740C490182224604A91C
:10CD80000120A0DF00280CD1204600F085FA002801
:10CD900007D1204601F094FA002802D1204600F085
:10CDA0008FF806B010BD0000BCF001002115000096
:10CDB00010B50A88102A06D0112A07D0502A01D1AE
:10CDC00001F0F8F810BD8988818310BD0021C943A6
:10CDD0008183002120221154C177817710BD00008A
:10CDE00003B585B004216A461182828B0D498A42BF
:10CDF00015D0C17F002912D000210091019102912C
:10CE00000391012269468A7042890A8006A903912A
:10CE100004A90291808B6946A6DF07B000BD0820F7
:10CE2000FBE70000FFFF000000B51D4889B08068E7
:10CE30000790002348221B4907A801F027FA002881
:10CE400001D0FFF7F1FC6A460121002001F006FA4B
:10CE5000002801D0FFF7E8FC134801F055F900283D
:10CE600001D0FFF7E1FC684601F0EEF9002801D09F
:10CE7000FFF7DAFC05A871DF002801D0FFF7D4FC2A
:10CE800005A9002070DF002801D0FFF7CDFC07487E
:10CE900001F0D0F9002801D0FFF7C6FC09B000BDB1
:10CEA00090F0010044210020E81F0020A5CC0100E3
:10CEB0000249091820200856704700001425002058
:10CEC00030B58FB005461C216846FEF792F96946D9
:10CED00008781A21084369460870002401940394D5
:10CEE000049405940694A87E08A98870154869469C
:10CEF0000884601C0007000F103007940877112089
:10CF00004877887FF9210840F721801C0840EF21ED
:10CF100008404008400069468877142109A8FEF7B8
:10CF200068F908A8099007A80A900420694688852E
:10CF3000CC8508860D942B462888123309AAA2DFD7
:10CF40000FB030BD2415000000040902084310434F
:10CF500070470000F8B52348C16800293ED00E682C
:10CF600021494C680769C078E11B0D022D0AED1CB0
:10CF7000002814D101201D4A000450601B4A403A89
:10CF800050601B49400008601A4908601A49012096
:10CF900008602F20FEF7BEF812490120C870B54284
:10CFA00000D23546E81900020F4B000A40331860E2
:10CFB0000D4A5168001B091B0902090A0002000AF8
:10CFC000C91C814209D9506818602F20FEF7A2F8C9
:10CFD00001200749400480390860F8BD01F03AF8A3
:10CFE000F8BD0000E0200020001501404013014082
:10CFF00080E200E000E100E000100140F8B50646E4
:10D00000108814468446801D0D46984201D90C2094
:10D01000F8BD32880720062AFAD31927FF01184BDA
:10D02000BA4201D99A42F3D171880629F0D3B942A4
:10D0300001D99942ECD19A4203D0994201D08A4257
:10D04000E6D805216046295420881221401C80B270
:10D05000208029542088401C80B2208041193088CB
:10D0600001F004FF2188401880B2208041197088A7
:10D0700001F0FCFE2188401820800020F8BD00004F
:10D08000FFFF000010B5FFF7CFFB10BDF8B5164845
:10D0900000F0F0F9144D00260C3D144C002807D088
:10D0A000616900291CD001206A461070684616E0AC
:10D0B0002878002805D06169002911D068460670DB
:10D0C0000DE0687800280DD0A168094800220068AA
:10D0D000FFF73EFC002803D0A169002900D0884753
:10D0E0002E70F8BD6168F0E7B8200020D824002039
:10D0F000B8F0010010B50E4900234A788C78A2429E
:10D1000012D0521CD2B24A70022A00D14B704A7817
:10D11000074B920018339A580260086910180002F1
:10D12000000A0861012010BD0360002010BD00004E
:10D13000E020002010B503484021806AFEF759F82E
:10D1400010BD000080200020826883881A40036898
:10D150009A5C0A708168491C81607047C268838844
:10D160001A4003689954C168491CC160704710B5E2
:10D170000446C0B2FFF7A4FC204610BD10B5044918
:10D18000024888624021FEF734F810BD7624002062
:10D1900080200020F8B506460A480D460078012197
:10D1A00008430B4600240222694601F0D9FC0028FE
:10D1B00006D06846007830706846407828700124B0
:10D1C0002046F8BDD020002038B50F2000F042FCEA
:10D1D00000256846144C05702B4601221149207821
:10D1E00001F0BEFC00280BD0012120780B4608433B
:10D1F0000A46694601F0B4FC002801D16846057072
:10D200006846007800280CD06178E62201436170FE
:10D21000684602704170012302226946207801F0BD
:10D220009FFC38BD16F10100D020002010B5054844
:10D2300001231A460249007801F092FC10BD00005B
:10D2400015F10100D020002010B5054801231A4631
:10D250000249007801F084FC10BD000014F10100C7
:10D26000D0200020F8B506460A480D460078012176
:10D2700008430B4600240222694601F071FC002895
:10D2800006D06846007830706846407828700124DF
:10D290002046F8BDD020002030B58FB005461C21B7
:10D2A0006846FDF7A6FF69460878102108436946DD
:10D2B0000870002401940394049405940694A87EB5
:10D2C00008A98870154869460884601C0007000F8B
:10D2D00010300794087711204877897FF9200140A2
:10D2E000F720891C0140EF200140480840006946B2
:10D2F0008877142109A8FDF77CFF08A8099007A8E2
:10D300000A90042069468885CC8508860D94288873
:10D31000AB1C09AAA2DF0FB030BD0000221500002F
:10D3200010B5FFF783FF10BD1CB5002401A96846A6
:10D33000FFF730FF00281DD0684600780422010264
:10D34000684682560C4C90098001081880B2A08073
:10D35000FEF716F90F21C943FDF7ECFF0749FDF76A
:10D36000ACFF0749FDF750FFE0600221E06801F0E3
:10D3700071FE044620461CBDD02000200000FA4269
:10D380000000C0C010B5FFF75FFF10BD1CB5002442
:10D3900001A96846FFF766FF002823D06846007899
:10D3A00004220102684682560F4CD008C0000818BB
:10D3B00080B26080FEF7E4F80F21C943FDF7BAFFA1
:10D3C000FEF7FEF8094A0A4BFEF772F8094A0A4BC3
:10D3D000FDF7BCFFFEF708F9A0600221A06801F08C
:10D3E00039FE044620461CBDD0200020D7A3703D46
:10D3F0000AF76540CDCCCCCCCC6C47C0F8B51C4C02
:10D400002078002833D02069002807D00026E06863
:10D41000002805D00025002E04D011E00126F6E7F3
:10D420000125F8E7684652DF052804D0002804D01B
:10D43000FFF7FAF904E0012602E021690098884725
:10D44000002D10D1608869460880A06861DF05283A
:10D4500004D0002804D0FFF7E7F904E0012502E03A
:10D46000E168A0688847002EDCD0002DD3D0F8BD3D
:10D4700004210020418805480288914204D3408855
:10D48000814201D80120704700207047B020002061
:10D490001048018CC9B2012917D1818C090714D118
:10D4A000018D09060A0F03D1828D1206120F0ED0CC
:10D4B000090F012903D1828D1206120F07D003290B
:10D4C00003D1808D0006000F01D00020704701209D
:10D4D00070470000C00F00F030B51588EC1C9C426E
:10D4E00001D90C2030BD02244C5513881C255B1C2F
:10D4F0009BB21380CD5413885B1C9BB21380012810
:10D5000007D0022807D0032807D0042807D0072017
:10D5100030BD002004E0012002E0CC5401E00320F3
:10D52000C8541088401C1080002030BDF8B52C492C
:10D53000C8680A690C780F79896886469446009114
:10D540003EE00099E20055182A7836E0182353434C
:10D550006968521CC918AB78D2B2934200D100223C
:10D560000B78022B02D0032B27D123E04E68034611
:10D57000014603E0B14204D00B46C96900291CD022
:10D58000F8E7002919D08B4208D1C069002805D1DD
:10D59000144F0126BE600026B44601270E68C969F3
:10D5A000D961002909D00B689B190B6005E0017453
:10D5B000C06900E000210028F9D169789142C5D105
:10D5C0002146641EE4B20029BBD1054962460A61C6
:10D5D000C8600F71704501D00120F8BD0020F8BD72
:10D5E000E020002000100140F8B504463148002634
:10D5F000C168009107784EE02E48F90080680D1848
:10D6000043E0002C02D02046E4691FE0287818216E
:10D6100041436A68401CC0B251182870AA789042F1
:10D6200000D12E700A784868012A30D1027C002A85
:10D630002DD18A684260CA6882600A69C2604969FD
:10D6400081611C490979002900D046601949436865
:10D650000A699C46991A0902174B090A994202D293
:10D660008268891807E06146511A09028268090A2E
:10D670008A4202D9511A016000E006604660012129
:10D6800086600174C66100F0A9FE002CB9D128782B
:10D6900069788842BAD138467F1EFFB20028ABD1E4
:10D6A0000448C1680098814201D00120F8BD0020E3
:10D6B000F8BD0000E0200020FFFF7F0000200326CF
:10D6C0004E499EB0012504462A4682401203920F1D
:10D6D00002D0820052181660401C2028F4D3032187
:10D6E00047488904C1608460FFF748FD01F008F9EC
:10D6F00001F0A0FC434F04AB38461C3007C807C3F9
:10D700004148009041480290FF200130039001956C
:10D7100003233F4A694604A8FFF782F9002801D095
:10D72000FFF782F8FFF780FB1120694608720A2292
:10D7300038A102A87CDF002801D0FFF775F800941B
:10D740005021684601940180A0214180FF218480FE
:10D750009131C1807ADF002801D0FFF765F83048A9
:10D76000FFF7F6FA002801D0FFF75EF878681C9002
:10D770002B48817E18A8817438216846FDF739FD51
:10D7800002216846017085700621C17038210EA8FB
:10D79000FDF72FFD10A805811CA813900EA968465F
:10D7A000FFF7AAF9002801D0FFF73EF81C216846D0
:10D7B000FDF71FFD052040040190801002900094A9
:10D7C00068460673C481047416480590164806908E
:10D7D0006846FFF7C5F9002801D0FFF725F801F0EA
:10D7E000A9F9FFF7F1FCFEF7F5FF10A0FEF742FAEA
:10D7F00048DF0028FCD0FFF717F8F9E700070050D2
:10D800000005005090F001008120002054230020EA
:10D8100031ED01005248545F53656E736F72000022
:10D820005424002095DF010085D0010053746172FB
:10D83000740A0D0070B5144682880E46054620888D
:10D84000111D4118921C994201D8FE2A01D90C20C1
:10D8500070BD521C32542088FF21401C80B22080B1
:10D8600031542088401C80B220808119288801F022
:10D87000FDFA2188401880B22080AA88002A09D0A9
:10D88000A968002908D08019FDF79AFC2088A9888A
:10D8900040182080002070BD072070BDF7B5314DC5
:10D8A0000746A86A1646C18F0A2901D90B2100E054
:10D8B000491CC187818F491C89B281870A2902D3FB
:10D8C0000021818704E0002902D0491E8CB200E0CB
:10D8D0000924818F224624A0FEF7CCF9A96A6000B2
:10D8E000CA8F0F524118019B0B85AB6A0021C018EB
:10D8F00081820A2A28D3002C1AD0601E00B2A96A9D
:10D9000006E042005218938A9B19401E938200B28F
:10D910000028F6DA0920641CA96A06E042005218C1
:10D92000938A9B19401E938200B2A042F6DAFEBD94
:10D93000A96A092042005218938A401E9B1900B21E
:10D9400093820128F6DAFEBD641E20B2A96A06E0C1
:10D9500042005218938A9B19401E938200B20028FD
:10D96000F6DAFEBD802000206E657874206D65615A
:10D970007320706F73203D2025752C20706F7320ED
:10D980003D25750A0D0000000949896ACA8F898FF3
:10D99000491E89B20A2A03D90A1A12B2002A01DBE7
:10D9A000081A02E00A22101A401880B270470000DC
:10D9B00080200020F8B50F4601781446054601295D
:10D9C00002D16878002806D02088821C9A422DD87F
:10D9D000012902D006E00720F8BD69784118891CAA
:10D9E000994223D8181A801E86B26846068021887C
:10D9F000B81C081869467DDF0028EDD12878022878
:10DA000005D169460988B14201D809210AE00821F7
:10DA1000012805D16878B04202D86A46108001E03A
:10DA20006846068068460088FE2801D90C20F8BDAB
:10DA30002288401CB8542088401C80B22080395471
:10DA400020886946401C20800988401820800020DA
:10DA5000F8BD000031B5054C04E0401E00902046A2
:10DA6000FDF738FB00980028F7D138BDE703000028
:10DA70008207D30EFF229A408907090E10B59940FC
:10DA800000280BDA03071B0F083B9C080C4BA40073
:10DA9000E318DC6994430C43DC6107E08408094B1C
:10DAA000A400E418236893430B432360C106C90E06
:10DAB00001208840044908600449086010BD000046
:10DAC00000ED00E000E400E080E200E000E100E0C2
:10DAD00070B5012424048C40032605683602AD1974
:10DAE000002B01D06C6000E0AC6000688900081871
:10DAF000052109024018026470BD0000016801227E
:10DB00000A6000790C225043024A022180180172F7
:10DB1000704700005C250020F0B5FF250235046841
:10DB20008D40FF34FF340234059E2768AF432760E1
:10DB30000468FF34FF34023425681D4325603346F2
:10DB4000FFF7C6FFF0BD000070B504460D46007932
:10DB50000C21264B4143CE18317A002901D00820F0
:10DB600070BD002A02D0002D02D004E0072070BD55
:10DB70001F49C00045183260686870600020034685
:10DB800006E08100FF31226841315350401CC0B291
:10DB900061798142F5D82068E978000B40B2FFF73F
:10DBA00067FF05202168000209186A784B68D207D0
:10DBB0005B085B00D20F13434B602268A9781218F0
:10DBC000936889079B089B00890F0B43936021682A
:10DBD0002A7808180169120709090901120F11436F
:10DBE000016101203072002070BD00005C25002022
:10DBF000ECF00100F3B52A4C0746E07E81B0002826
:10DC000001D00820FEBD002F00D1264F0126387814
:10DC10003146814024488160386800F03EF9002197
:10DC2000786800F031F9214DB8696862787D397DF6
:10DC30000843E86603CFE8606961387B083F012844
:10DC40000FD10021B86800F01FF9387B31468140C0
:10DC500015488160F86800F020F9F968B868A96093
:10DC60002861029860603969216000280ED0FF2386
:10DC70000F481D33397F0022C250FF234533C25065
:10DC80000D4A0C4850600220FFF7F2FE0420286085
:10DC90000020E0752076A075E676A076FEBD000037
:10DCA00068250020F4F00100000500500025004028
:10DCB000002000408000020000230040F8B5104B17
:10DCC00081245E680022A4000E4D002E00D0AC60BE
:10DCD000DF7D002F0BD01A7E002A04D0002E00D04A
:10DCE0006C601120F8BD18610122197604E0D97525
:10DCF0000024D8605C761C7600F012F8F8BD0000B5
:10DD0000682500200023004010B5044CA07E0028A8
:10DD100003D100F0EBF90120A07610BD68250020AA
:10DD2000F8B5234DA87E104301D100F0DFF96868F3
:10DD3000204C002805D081201F4980004860002029
:10DD4000F8BDFF20453000212150FF21253120461C
:10DD500000F0C8F80546FF210931204600F0C2F85E
:10DD60000746FF214531204600F0BCF806463946FB
:10DD700031432943E9D02846304306D100F08CF9DD
:10DD80000B48C17D407E8142DFD800210848002D2C
:10DD9000C17501D00320F8BD002E01D00F20F8BDC1
:10DDA000817E0120002901D02060C8E76060C6E7BD
:10DDB00068250020002000400023004010B50346E5
:10DDC00000F048F8002801D0112010BD034A0020BF
:10DDD00091759360908200F003F810BD68250020D3
:10DDE000F8B50026194FFF251D357E510120B8607A
:10DDF00000F020FF164C6168002910D022E0FF27B8
:10DE000001372946114800F06DF8002802D1A08A98
:10DE1000B842F6D1A08AB84201D000F00BFFA08A28
:10DE2000A17D8842EBD3A18AC81FF9380CD0074FD7
:10DE30002946384600F056F80028F9D00120F8604D
:10DE40000020A0753046F8BD0F26F9E700200040FD
:10DE5000682500200248807D002800D001207047FE
:10DE60006825002030B552000A439900039C0A43FC
:10DE70002102049D0A4329040A43024980004018F4
:10DE8000026030BD000700501CB500220B46009216
:10DE900011460192FFF7E6FF1CBD1CB50021009161
:10DEA0000B46012201911146FFF7DCFF1CBD00006B
:10DEB000820006481018026803231B049A4302607C
:10DEC000026809040A43026070470000000700501E
:10DED000034940180068012800D000207047000066
:10DEE000006000404058002800D001207047032205
:10DEF000120280184068084000D0012070470000DE
:10DF0000F8B5078801220025D2041D491D4C1E4B7F
:10DF10001E4E102F10D0112F1ED020468088132F98
:10DF200029D0522F07D100231A461946A9DF00280D
:10DF300001D0FEF779FCF8BD8A60CD600122920421
:10DF4000CA608D608088A080002211491868FEF7A1
:10DF5000FFFC65613570F8BDCA608D600020C0436C
:10DF6000A0801868FEF732FD656125706581357007
:10DF7000FEF730FCF8BD00231A4685217FDFD6E787
:10DF8000000500508020002090F00100C2200020F9
:10DF90008F02000010B50078002807D104483B210B
:10DFA000808876DF002801D0FEF73EFC10BD00001F
:10DFB0008020002030B5CA88C58A01230024891D2D
:10DFC000AA420FD14A89022A0CD14A7B0D7B120248
:10DFD0002A43D5070246ED0F2032002D01D01370E1
:10DFE00000E014700A88C589AA420CD14A89022A25
:10DFF00009D14A7B0D7B12022A43D207D20F01D0EE
:10E00000C37700E0C4770A88C588AA4202D14D8947
:10E01000022D05D0408A82420AD100200A4A0EE031
:10E020004A7B0D7B11022943C907C90F01D08377B1
:10E0300030BD847730BD0B181B7B1354401C4B89BB
:10E040008342F8D830BD0000C320002000040843FC
:10E050007047000070B501240B49600408600B494B
:10E0600040108860094940398860094D6C602F2054
:10E07000FDF750F8AC60074D00242F202C61FDF710
:10E0800049F8EC7070BD000080E100E040130140F1
:10E0900000100140E020002030B50A48FF21C57D76
:10E0A0000022094C0931094B002D625007D09969B3
:10E0B000437EC268D154417E491C417630BD986987
:10E0C00030BD0000682500200020004000250040F1
:10E0D0001FB501236A46137010720348019106C8E8
:10E0E000684690471FBD000068250020FF220548B4
:10E0F000253200218150FF22093281500121016027
:10E10000704700000020004008B50249002000913F
:10E1100008BD00008020002010B50121202805DA6C
:10E120001A4A8140114201D1194810BD8107C90E18
:10E13000002808DA0207120F083A9208154B9200DD
:10E14000D218D26904E08208134B9200D2181268E8
:10E15000CA401106890F042911D200290FD00229C3
:10E160000DD00E494C68C306DB0E01229A40002CEC
:10E1700008D0400980000B5813430B5004E00448BA
:10E18000401C10BD06480260002010BDFC06FFBC0C
:10E190000120000000ED00E000E400E01821002074
:10E1A00000E100E0FFB50746806A81B01446002810
:10E1B0003DD0002538462030009033E00C20B96A6D
:10E1C00068430E18B088801CFE2802D90C2005B0C8
:10E1D000F0BD22880299401C885420881622401CD9
:10E1E00080B2208002990A542088401C80B220808E
:10E1F00002994118308800F039FE2188401880B219
:10E200002080B288002A0AD0B16800290FD0029B72
:10E21000C018FCF7D5FF2088B188401820806D1CFD
:10E220000098EDB2007BA842C8D80020CFE70720B5
:10E23000CDE70000002803D00249C86000207047E5
:10E240000E207047042100201CB503490191009164
:10E25000694660DF1CBD00008020002070B50E46BE
:10E260000546144614211046FCF7C3FF0120002187
:10E2700020802161217326726572002D00D0A0726A
:10E28000002070BD10B5FEF7C1FA10BD70B50029B1
:10E2900001D08C0701D0072070BD074C0125A1607B
:10E2A00062800649636010DF0028F5D125701620D2
:10E2B000FFF732FF70BD00000421002085E201005D
:10E2C00030B58FB005461C216846FCF792FF6946C1
:10E2D00008781021084369460870002401940394CB
:10E2E000049405940694A87E08A988701548694688
:10E2F0000884601C0007000F103007940877112075
:10E300004877897FF9200140F720891C0140EF20E0
:10E3100001404808400069468877142109A8FCF7A5
:10E3200068FF08A8099007A80A9004206946888514
:10E33000CC8508860D942B4628880A3309AAA2DFCB
:10E340000FB030BD23150000FEB51F4C0025276916
:10E35000E06802906846FEF7CDFE0190FFF7E6F810
:10E3600006460198002822D000230098E16817E0B3
:10E370000E680A46864202D9301A086012E0801BF5
:10E38000F31800261660D668D169B446002E07D06F
:10E39000FE183602360A566066469660D561154606
:10E3A0000029E5D12846E160FFF71EF906E028467E
:10E3B000FFF71AF9002801D1002E02D00298FEF7CB
:10E3C000C9FD00202071FEBDE0200020012002498F
:10E3D000000508607047000000E200E010B50E4B39
:10E3E000D968002906D002680C68A24204D8A21A93
:10E3F0000A60C161D86010BD0B4604E00B46C969D4
:10E40000121B002904D00C689442F7D3A41A0C60A4
:10E410000260C161D86110BDE020002010B5FF3856
:10E42000412818D1194918480860194C2069401C26
:10E430002061206901280FD02069032811D02069AC
:10E44000052814D02069072815D02069A1698842C1
:10E4500001D10020206110BDFEF798FFFEF792FF6A
:10E4600010BDFEF793FF2081FEF75AFF10BDFEF7A7
:10E470005BFFE08010BD0748062102880820615E2E
:10E48000205EFFF70BFA10BD3546526E00060140C4
:10E4900080200020C0200020FEB5BE4EBE4D327848
:10E4A00003270121BD4C28881300FDF70AFC0AF25E
:10E4B000065462CCDCF3FFEFEEF20220E070A070B5
:10E4C0002078012838D0207805283AD020780928EB
:10E4D0003DD020780A2817D3E770A770208981B231
:10E4E0000020FFF7B3FDE061E08881B20020FFF774
:10E4F000ADFD2062AA48E169FEF772FCA848216AD6
:10E50000FEF702FC0A2020703278A1782888FEF7F6
:10E510001BFD01466062A248FEF7D2FB30780090F6
:10E52000A37806220821A25E615E9EA0FDF7A2FBF1
:10E530002078401C20701EE1FEF728FFFEF722FF26
:10E54000E2E7FEF723FF2081FEF7EAFEDCE7FEF7B5
:10E55000EBFEE080D8E7E170A170A178FEF7F4FC53
:10E56000014660628E48FEF7ABFB0020207096A04B
:10E5700076E060890A2841D2A06A6189C08F88420A
:10E580003CD30220E070A0706089FFF7FDF9A08104
:10E59000A26A4000115A8018808AFFF757FDE06197
:10E5A000A089A16A40004018018D808AFFF74EFDC6
:10E5B00020623278A1782888FEF7C6FC01466062A6
:10E5C0007748FEF77DFB7648E169FEF709FC744861
:10E5D000216AFEF799FB6089401C60813178A07840
:10E5E00001910090A089A26A410088182823525EF8
:10E5F000C35E818A79A0FDF73DFB19E0E770A77043
:10E6000000210846FFF722FD0021E0610846FFF7E0
:10E610001DFD20623278A1782888FEF795FC6062A3
:10E620005F48E169FEF7DCFB5D48216AFEF76CFBA1
:10E630003278A1782888FEF787FC01466062584846
:10E64000FEF73EFB97E0E170A170A178FEF77CFC3D
:10E65000014660625248FEF733FB0020608165A0EE
:10E66000FDF708FB87E00220E070FEF763FDE7702E
:10E67000A7703278A1782888FEF766FC01466062B0
:10E680004748FEF71DFB60A0EAE73EE031E00DE001
:10E6900000E051E0E170A170A178FEF755FC014661
:10E6A00060623F48FEF70CFB5CA0D9E70223E370F1
:10E6B000012801D8298003E0F02801D3F020288028
:10E6C00028883C214143A161A061E770A770A1782F
:10E6D000FEF73AFC014660623148FEF7F1FA304835
:10E6E000E169FEF77DFB2E48216AFEF70DFB50A085
:10E6F000B6E7E170A170A178FEF726FC01466062E2
:10E700002748FEF7DDFA4FA0AAE7E170A170A178D3
:10E71000FEF71AFC014660622148FEF7D1FA204854
:10E72000E169FEF75DFB1E48216AFEF7EDFA002065
:10E730006081207048A093E7A178FEF705FC0146B0
:10E7400060621748FEF7BCFA1548E169FEF748FB1E
:10E750001348216AFEF7D8FA14216069FCF706FD18
:10E76000002908D14048C178009183784278017827
:10E770003EA0FDF77FFA6069401C606160697D2101
:10E78000C900884205D3A0883C49884201D01321A2
:10E7900076DFFEBDC2200020C020002080200020A7
:10E7A00054240020543D25642C20483D25642C2011
:10E7B0007374617475733D25752C20636F6D6D3DA9
:10E7C00025750A0D000000004D6561734375727276
:10E7D0002072656365697665640A0D005469257564
:10E7E0002C5425642C4825642C7325752C632575C1
:10E7F0000A0D0000486973746F7279207265636551
:10E80000697665640A0D0000486973746F72792037
:10E8100064656C6574696E670A0D000048697374FD
:10E820006F72792064656C657465640A0D00000080
:10E83000496E74657276616C206368616E67696E9B
:10E84000670A0D00496E74657276616C20636861B9
:10E850006E6765640A0D000053696D706C65436FE7
:10E860006E6E0A0D00000000C3200020643D257577
:10E870002025752025752025750A0D00FFFF000055
:10E88000F8B51D4DEC68002C34D01C4800274068BA
:10E890002969401A0602360A2068B04218D8361A8A
:10E8A000C7192246107CE46900280FD0002010749C
:10E8B0006B69002B07D0916950699847002805D0F3
:10E8C000FDF7B2FF02E0516990698847002CE3D15F
:10E8D0006978A878814206D1401CC0B2A87002288D
:10E8E00001D10020A87004490006800D18310F5096
:10E8F000FFF76CFDF8BD0000E0200020001501408E
:10E90000FEB50023394A05211846FDF7D9FF002836
:10E9100001D0FDF789FF364A01213648FDF7BAFFDD
:10E92000032109200091FDF7E9F9334C334E651CB2
:10E93000082700280DD00098FDF7EEF900280AD02E
:10E940003068FF21090288430321890308433060AE
:10E9500004E0204600E02846FDF766FF0920FDF7A9
:10E96000CDF9002810D030680004800FFDF7D4F9ED
:10E9700000280BD02248426801214902002A31D0E8
:10E9800002680A43026004E0204600E02846FDF7E2
:10E990004BFF18491B4A48698969029101906946F1
:10E9A0000F7100208871134801A90C30FFF7CCF8D3
:10E9B000002801D0FDF738FF0E4805210C30006813
:10E9C000090240180069104A0021C2400120034694
:10E9D000009008480C30FFF79FF806480C30FFF70E
:10E9E0008DF8FEBD09480160D3E700008C210020AE
:10E9F00099E4010090F001000120000008E400E02B
:10EA0000182100201DE401000024F40000E100E0D2
:10EA1000F8B5134C0120A0600226A6600420FCF784
:10EA200069FB2069C00702D0206980070FD42069E4
:10EA3000800711D500251127E6600420FCF75AFB5A
:10EA4000A6600420FCF756FB2069C00701D0012511
:10EA500003E07F1EF0D200E000252846F8BD00004C
:10EA600000050050F1B50126174C3546A6618027F8
:10EA70000220E0600420FCF73DFB0098384201D002
:10EA8000A56000E0E56000F0C5F8002819D07F0817
:10EA9000EED10227E7600420FCF72CFBE56104209F
:10EAA000FCF728FB00F0B6F821693040C907CE1703
:10EAB000761C0640E7600420FCF71CFBA56130468D
:10EAC000F8BD0026E5E7000000050050F3B500267C
:10EAD000174C81B00127E761802500F09BF80028E2
:10EAE00013D02069C00700D02E430220E06004202C
:10EAF000FCF700FB6D08F0D10120A06101990E70B8
:10EB00000299002903D0E06002E00027F4E7A0604A
:10EB10000420FCF7EFFA00F07DF8002800D1002770
:10EB20000220E0600420FCF7E5FA3846FEBD000054
:10EB30000005005010B508490648086048600748BD
:10EB4000022181608161012181608161FFF760FFA5
:10EB500010BD00000C06000000070050000500502A
:10EB6000FFB52B4F81B0012015460E46B86004203A
:10EB7000FCF7C0FA00F04EF8002812D00120F8602F
:10EB80000420FCF7B7FA0220F8600420FCF7B2FA80
:10EB900001240198FFF766FF04400198C0070AD1DD
:10EBA00018E00024F5E7002D0DD001213046FFF7D5
:10EBB0008DFF0440761C28466D1EEDB2002810D053
:10EBC000002CF0D10DE00021F0E73078FFF74AFF8C
:10EBD0000440761C28466D1EEDB2002801D0002CA2
:10EBE000F3D10498214681430ED10125FD60042014
:10EBF000FCF780FA00F00EF8002804D0BD60042075
:10EC0000FCF778FA01200440204605B0F0BD000072
:10EC10000005005010B5064C0220A0600420FCF74F
:10EC200069FA20694008C007FBD0012010BD000030
:10EC300000050050FF2107481D31002242500648C0
:10EC4000828A8168895C828A521C82820348C161FF
:10EC5000704700000020004068250020002500408B
:10EC60001FB500216A461170107204488268019233
:10EC7000817506C8684690471FBD000068250020C2
:10EC80007CB50178284D01290AD002292FD000290E
:10EC90002CD129462548FDF7D3FD002833D036E096
:10ECA0004068017821481038FDF7E7FD1F4C103C03
:10ECB000002805D001216A4611700190684608E0DD
:10ECC000A068E168081A012805D10020694608708B
:10ECD000684669688847A068E168081AA188884280
:10ECE00004D811480121401CFEF7E8FF7CBD022139
:10ECF0006A461170C06801900B480121401CFEF764
:10ED0000DDFF68460CE001210748FFF757F8074888
:10ED10008168C0688842E9D1032069460870684666
:10ED2000696888477CBD0000C820002004250020B9
:10ED300010B50178012901D0022902D14068FDF700
:10ED400073FD10BDF0B5454D012185B0490228463F
:10ED5000FFF7CDF801270026414C002824D0FF21E1
:10ED600025312846FFF7BEF800281DD0FF202530AA
:10ED70002E5081203B4980008860A07E002800D171
:10ED80006F60022168460170374908680860039087
:10ED9000E17D68460172E0680190E675267606CC52
:10EDA0006846083C90472BE004212846FFF79FF86F
:10EDB000002825D0FF2109312846FFF793F80028C5
:10EDC0001ED0FFF769F9E07D617E884218D1207E70
:10EDD000002808D0627EE168E0752069E060267650
:10EDE000667610460AE0A07E002800D16F60812080
:10EDF0001C4980008860E675607EE168FFF768F96D
:10EE0000FF211D312846FFF76DF800280DD0A18A9B
:10EE1000A07D814202D2FFF70DFF06E0FF211D31E8
:10EE20006E50002801D0FFF71BFFFF214531284617
:10EE3000FFF758F800280ED0FF2045302E50A07E56
:10EE4000002800D02F60E07D002804D0E675607EA9
:10EE5000E168FFF73DF905B0F0BD0000002000407B
:10EE60006825002000230040802400400870000A2C
:10EE7000487002207047000038B51549154A488887
:10EE800090420FD04A78144C521CD2B24A70237B65
:10EE9000934208D3091D75DF002803D0A16900291A
:10EEA00000D0884738BD00254D70217C002907D04F
:10EEB0003B2176DF002803D0A169002900D08847D4
:10EEC00061690029EED068460570884738BD0000AA
:10EED000AC200020FFFF0000D8240020EFF30580C5
:10EEE000C005C00D1AD0103840B2002808DA01075A
:10EEF000090F083989080C4A89008918C96904E092
:10EF000081080A4A8900891809688007C00EC14033
:10EF10000806800F012803D0032803D00220704781
:10EF2000002070470120704700ED00E000E400E0A1
:10EF300042788378521CD2B2934200D100220378E7
:10EF4000934201D1002070470A704168407818222E
:10EF5000504308187047FFB583B016460C9D0D9CB2
:10EF60001F46022200950194039800F00CF8002837
:10EF700007D13B461022314600950194039800F0DA
:10EF800002F807B0F0BDFFB583B0074600200C9C27
:10EF90008646268805463AE07868A9004218118816
:10EFA000684681805188C1800022694601A865DFDA
:10EFB000002839D1684601780598814226D17046EB
:10EFC000002801D0002200E002222088891842187F
:10EFD0000D998A4227D8714600290AD1401C80B277
:10EFE0002080069A049911542088401C208001201A
:10EFF0008646218806980A18694601A865DF002818
:10F0000012D1694620880978401820806D1C388804
:10F01000A842C1DC704600280AD02088801B401E10
:10F0200080B2FF2802D90C2007B0F0BD06998855A0
:10F030000020F9E705480121C1604B2252044260DB
:10F0400082680A43826002480160704700050140FF
:10F050000000014010B500220446072900D907210D
:10F060000120491C02E00A235843521C8A42FADB61
:10F07000FCF786FA2146FCF720F9FCF788FA0A210A
:10F08000FCF78AF8C9B2052900D3401C00B210BDB4
:10F090002421002021150000010000010090004003
:10F0A0000004000000000003000000000B09080A33
:10F0B0000000000000E0D701B824002065501520B2
:10F0C0005F782315DEEF1212150000000900000022
:10F0D0000B0000000A000000080000000000000013
:10F0E0000000000000E0D701030000000000000362
:10F0F00000000000090000000B0000000A000000F2
:10F1000008000000000000000000000000E0D7013F
:10F1100003000000F3F5E70038F101008020002033
:10F12000A4000000DCBC0100DCF10100242100206F
:10F13000640C0000ECBC010000000000FFFF0000B8
:10F1400000000000000000000000000000000000BF
:10F150000A000000000000000000000000000000A5
:10F16000000000000000000000000000000000009F
:10F17000000000000000000001000000000000008E
:10F18000000000000000000080800000000000007F
:10F19000000000000000000000000000000000006F
:10F1A000000000000000000000000000000000005F
:10F1B000000000000000000000000000000000004F
:10F1C000000000000000000000000000000000003F
:0CF1D00000000000000000000024F4001B
:040000050001B0C185
:00000001FF
