:020000040001F9
:10B00000D030002015B101002FB1010031B1010095
:10B010000000000000000000000000000000000030
:10B0200000000000000000000000000033B101003B
:10B03000000000000000000035B1010037B1010040
:10B0400039B1010039B1010095BA010039B10100EF
:10B0500039B1010000000000D1B7010039B1010091
:10B0600039B1010051BA010039B1010039B1010013
:10B0700039B1010039B1010039B1010039B1010024
:10B0800039B1010069B9010039B1010039B10100DC
:10B0900089B9010039B1010091B9010039B101004C
:10B0A00039B1010039B101000000000000000000CA
:10B0B0000000000000000000000000000000000090
:10B0C0000348854600F060FB0048004719CA0100AC
:10B0D000D0300020401E00BF00BF00BF00BF00BF37
:10B0E00000BF00BF00BF00BF00BF00BF00BFF1D165
:10B0F00070470000401E00BF00BF00BF00BF00BF80
:10B1000000BF00BF00BF00BF00BF00BF00BFF1D144
:10B11000704700000321094802680A43026008489A
:10B1200002680A4302600748804707480047FEE775
:10B13000FEE7FEE7FEE7FEE7FEE70000240500402D
:10B1400054050040B1B90100C1B0010030B50B4653
:10B15000014600202022012409E00D46D5409D42F1
:10B1600005D31D469540491B254695404019154677
:10B17000521E002DF1DC30BD70B50024254600289C
:10B1800001DA01244042002901DA01254942FFF792
:10B19000DDFFAC4200D04042002C00D0494270BDDF
:10B1A00003460B439B0703D009E008C9121F08C0E0
:10B1B000042AFAD203E00B780370401C491C521E8B
:10B1C000F9D27047D2B201E00270401C491EFBD296
:10B1D00070470022F6E710B513460A4604461946A2
:10B1E000FFF7F0FF204610BDF8B502464A40D40FE5
:10B1F00042004B0052085B089A4202D202460846BF
:10B2000011464A0023D0C30D4A00DDB2120EAD1A1A
:10B21000202D35DA49020126490AF6058A19002C43
:10B2200000D0524220214F1B1146B9402A4110182C
:10B23000C20D9A4221D0002C17D0012D08DCDA056E
:10B24000801AD20F8019D207DBB200F004FAF8BDE1
:10B25000DA05801A012340001B06C01880185A42E4
:10B260008018CA0F1043490007E04908C20711437C
:10B27000DA05801A80194008801800F0E4F9F8BD5A
:10B2800061000122511A001BF7E70122D207514049
:10B29000AAE70122D2075040A6E7024670B54A400D
:10B2A000D30FDB0740002DD04A002AD0010E140E28
:10B2B000000212020919400A520A8418E5010446E4
:10B2C0005443000A120A2E045043A4194219200CB8
:10B2D000C543AA18120C0125AD03521C52191204C1
:10B2E0007F39240400D0521C104301D44000491E71
:10B2F000C2B20C06C0092018401C4008802A02D0A7
:10B3000003E0002070BD40084000002900DA002062
:10B31000184370BD420005D04200120E52428A42CC
:10B3200001DB00207047C90508187047F0B50746D3
:10B330000846584087B0C00F049048000E46590098
:10B3400040084908BC1A884105D2384631461E4695
:10B3500017460B4602465800400810434CD0300DAB
:10B36000039040055900400D490D0590401A029088
:10B37000402872DA18030121000B090508430190E7
:10B3800004980092002805D001995242002088417B
:10B3900000920190029840210A1A0199009800F049
:10B3A0002FF905460C466B4607CB00F039F9C0195A
:10B3B0007141039A0E0D0023D71756401A467A4062
:10B3C000164344D0049A002A2DD0029A012A039AE7
:10B3D00015DC1205C01A914101263605001C714189
:10B3E000D20F059ED2070093019202962A46234669
:10B3F00000F077F907B0F0BD38463146FAE7160598
:10B40000224A0F46B218C01AB74101210905001C93
:10B410004F4100187F41114618187941E20F10433F
:10B420006D19644113E0E2076D0815436408C20713
:10B430001443039A01261205C01A91413605001CD7
:10B440007141CE07400830434908C01851412A468F
:10B45000234600F039F9CDE7FFE7049801224000C8
:10B46000C117121A00238B4104983146C417381AA9
:10B47000A141EEE730B40124E407634030BC55E756
:10B4800030B40124E407614030BC4FE70000E0FF26
:10B49000F0B51FB488B00B99099800244840099969
:10B4A000C00F490049080991C0070B990090490055
:10B4B00049080B9109990898A64608431CD00B9996
:10B4C0000A98084318D0099801244000420D48000A
:10B4D000410D099824050003000B204309900B98A7
:10B4E0000003000B20430B9050181C494018002209
:10B4F00001901446104605E0002001460DB0F0BD55
:10B50000032801DA034600E003239C46C11A0AAE71
:10B510000AE05F0008ADED5B4F00F75B7D4300275D
:10B52000AA187C41491C5B1E6145F2DD410004AB59
:10B530005A522104120C0A43240C401C0828DFDB59
:10B54000019802900099704601910090059B049A21
:10B550000799069800F0C5F8D0E700000DFCFFFF42
:10B5600010B500229623114600F075F810BDC20FE9
:10B57000410040020123400ADB05D207090EC01832
:10B580007F2901DA00207047962903DC9623591A97
:10B59000C84001E096398840002AF4D04042704704
:10B5A000C20FD207400040080BD0C10D0723DB01BA
:10B5B000C91840020905400A1143C2084007114357
:10B5C0007047002001467047CB0FDB07490010B5DC
:10B5D000490802460A4307D00A0D07240903E4017B
:10B5E000090B121B002A01DC002010BDC900440F0A
:10B5F0000C43C100E018D205801800F024F810BDFB
:10B6000010B5202A04DB0146203A9140002010BDED
:10B61000914020239C1A0346E3401943904010BDFB
:10B6200010B5202A06DBCB170846203A1041C11777
:10B630000B4306E00B461341D0402024A21A914050
:10B640000843194610BD002904DA401C490001D105
:10B6500040084000704770B40024050C05D1102448
:10B66000000402D1002921D01124050E01D10002CD
:10B670000834050F01D10001241D850F01D1800080
:10B68000A41C002801DB4000641C002908D02025F0
:10B690002E1B0D46F540A14000D00121294308434F
:10B6A00001061B1B000ADB1D02D5002070BC704781
:10B6B000DB05181880180029F8DA401C4900F5D17C
:10B6C00070BC40084000704710B5002B08DA002419
:10B6D000401C614192185B411A4301D1400840006F
:10B6E00010BDF0B51FB482B005460C0003D008466B
:10B6F00000F0D4F902E000F0D1F9203002460090C9
:10B7000021462846FFF77CFF049B059A04460F4616
:10B7100018431143084314D0184610431BD0009817
:10B7200040210A1A1846059900F040F805460E46D1
:10B73000009A05990498FFF763FF084305D001209C
:10B7400004E02046394607B0F0BD0020C11705438C
:10B750000E432C43374300990E986305401A790530
:10B76000E40A00220C43FD0A0A3002D500200146FB
:10B77000E9E70105101969410C9C0D9D001969410B
:10B78000FFF7A2FFDFE70000064C0125064E05E0AB
:10B79000E36807CC2B430C3C98471034B442F7D3F2
:10B7A000FFF792FC48DD010068DD010010B5202A9A
:10B7B00004DB0846203AD040002110BD0B46D340A0
:10B7C000D0402024A21A91400843194610BD000021
:10B7D000F0B50025FF248BB0013401262F460195DA
:10B7E000204601F091FB002808D0474840683042CD
:10B7F00004D046480021201835430160241D7600FE
:10B800007F1CA4B2042FEBD3FF207D3001F07CFB22
:10B81000002807D03E4800210160400705433D480D
:10B82000006901903C4C280712D0012700262F42C6
:10B830000AD03A48B200111808690969C004C00E5C
:10B840008903A258890F90477F00761C042EEED3FF
:10B85000002D57DA00200590401E4DE0A11940311F
:10B8600008788506AD0E42B2521C39D00121A9409C
:10B87000089A0091114233D080090390284600F0C5
:10B8800013FD800020580490002802D1039803285B
:10B8900026D103980099032802D105980843059002
:10B8A0001F4AA80080180068019A8003800F114287
:10B8B00002D0022802D013E0032811D103990329F2
:10B8C00007D102281CD00221284601F00DFB7F1C65
:10B8D000FFB20498002803D0049A284603999047A1
:10B8E000761C042EBAD3002F0CD00A4800690199A7
:10B8F000884207D00190059800273E460890ADE7A2
:10B900000321E1E70BB0F0BD0063004000600040A0
:10B910007C61004000050050602800200065004068
:10B92000000700508307FF22DB0E9A408907090EAB
:10B93000994000280BDA0007000F083883080848F0
:10B940009B001818C36993430B43C3617047830876
:10B9500004489B001B181868904308431860704700
:10B9600000ED00E000E400E010B5064900200860AA
:10B9700048608860C860034940390860486001F049
:10B980005FFE10BD4011014010B501F0B5FC10BDC7
:10B9900010B506484068002805D08047002801D02F
:10B9A00000F000FA10BD00F0D7FE10BD002100200D
:10B9B00010B500F01BFF002805D01F491D48486046
:10B9C000C8131E4988611E48018CC9B201290BD1D8
:10B9D000828C120708D1028D1206120F042A03D19D
:10B9E000828D1206120F0AD0012921D1818C0907FC
:10B9F0001ED1018D0906090F0A2904D007E0114A5A
:10BA000001219160F5E7828D1206120F05D00D29F4
:10BA10000ED1808D0006000F0AD10B480168012964
:10BA200004D00A49016001680129FCD1C0214161AB
:10BA300010BD0000DFFF07C000050040006C0040A3
:10BA4000C00F00F00006004000EC064075930000B7
:10BA5000F8B50E4C04270025BE03A8003146A940C6
:10BA6000FF3041302258002A0BD003221202A218C4
:10BA700052680A4205D000212150054A51681268D7
:10BA800090476D1CEDB2BD42E7D3F8BD0090004079
:10BA9000A828002010B501F093FF10BD2021020C52
:10BAA00001D010211046020A01D0104608390209BF
:10BAB00001D01046091F820801D01046891E420895
:10BAC00001D0881E7047081A704730B47446641E4F
:10BAD0002578641CAB4200D21D46635D5B00E31811
:10BAE00030BC184702E008C8121F08C1002AFAD16A
:10BAF00070477047002001E001C1121F002AFBD1EE
:10BB000070470000202804DA0121814003480142E7
:10BB100001D001207047002070470000FC06FFBCE8
:10BB2000042805D2002803D0022801D00120704744
:10BB300000207047F7B584B00025168807461580A9
:10BB4000406B1446002813D003780598032E51D378
:10BB50000221017021881122491C89B2218042549E
:10BB60002188491C89B2218043542088401C2080B0
:10BB7000386B00281DD005462088059902461232F0
:10BB8000B24237D811220A5420881022401C80B2B9
:10BB900020800A542088401C20800F202A5C2388A3
:10BBA000401ECA54228840B2521C22800028F5DA76
:10BBB0000025384620300290807B002806D033468E
:10BBC0002246059900F036FE050014D10298407B0C
:10BBD000002806D032462146059800F05BFA0500A1
:10BBE00009D1B878002823D0059886462088001D02
:10BBF000B04202D90C2007B0F0BD684679DF0028BA
:10BC0000F9D1218803207246505420881921401C04
:10BC100080B22080115420887146401C80B2208060
:10BC200041186846008801F05FFF21884018208095
:10BC3000F878002817D0218803230A46FB56C91C30
:10BC40000598B142D6D80221815421880122491C8D
:10BC500089B2218042542188491C89B221804354F1
:10BC60002088401C20807868002817D02188002375
:10BC7000C3560A46C91C0598B142BBD8022181545B
:10BC800021880A22491C89B2218042542188491CFA
:10BC900089B2218043542088401C208038890028A4
:10BCA0000AD0009438460196062202210830059BEE
:10BCB00001F08FFF05009ED1388A00280AD0009439
:10BCC00038460196072203211030059B01F081FFC1
:10BCD000050090D1388B00280AD000943846019690
:10BCE000152214211830059B01F073FF050082D145
:10BCF000386A002806D033462246059900F074FBC6
:10BD00000500D8D1786A002806D033462246059926
:10BD100000F016FF0500CED10298007B002807D066
:10BD2000334622463846059901F014FA0500C2D17F
:10BD30003878002807D0334622463846059900F067
:10BD4000C1FF0500B7D1284655E7000010B586B001
:10BD500018216846FFF73DFA0024684604700194F4
:10BD60007D210472C9000182448273DF002801D062
:10BD700000F018F80121034889048160C46006B00E
:10BD800010BD000000050050BFF34F8F0449034869
:10BD9000C860BFF34F8F00BFFDE700000400FA0545
:10BDA00000ED00E00EB50021029000916A4601917D
:10BDB0000148FFF7E9FF0EBD01400000094B9B68F9
:10BDC000002B07D0002A07D0002805D00068037C8C
:10BDD000002B03D008207047072070474174426150
:10BDE00000207047E0200020FFB59007002581B0BB
:10BDF00014460E46002832D11B4F002C31D001F0E2
:10BE00000FF90498786103203870334618212246D0
:10BE100000204B43BC601834C10089180D704D7070
:10BE20008E704C601C19401C0328F5DBFD607D7092
:10BE300001240E48BD702405046003211420FFF77F
:10BE400071FD0B4804600B4C0198A0600321112088
:10BE5000FFF768FD60683861002005B0F0BD07207D
:10BE6000FBE7BD60FBE70000E020002080E200E08F
:10BE700000E100E000150140FEB50D461B491746E4
:10BE80008968044600292AD0002C28D0052D01D22B
:10BE90000720FEBD6069002821D0607C012820D0E9
:10BEA000002601F059FEC000104901908968401831
:10BEB000694601F07BFE002815D0012101700C4974
:10BEC000446049680830E2C008490198896841180F
:10BED00068460078487001F051FA0020FEBD082045
:10BEE000FEBD2E46DDE70420FEBD0000E020002060
:10BEF00000150140F8B5134D0446A96800291CD06F
:10BF0000002C1AD06069002817D00026267401F092
:10BF100023FEC700A8686946381801F047FE0028CC
:10BF20000DD0022101704460A86839186846007875
:10BF3000487001F023FA3046F8BD0820F8BD04200F
:10BF4000F8BD0000E0200020F0B50C4693B01F21A2
:10BF50006A461180072600279180002809D0C17801
:10BF600049070DD502A9FFF7E5FD002809D102AD6B
:10BF700001E000251780002C0ED0E078002802D0C8
:10BF8000304613B0F0BD01AA0AA92046FFF7D2FD42
:10BF90000028F6D10AAA02E0684600228780684697
:10BFA0008088C3B268460088C1B2284672DFE8E7DD
:10BFB00070B5054601461C220E48FFF7F1F80E4CFD
:10BFC000002626702968002906D00822201DFFF7C8
:10BFD000E7F8201D7ADF02E00748001D7BDF00281C
:10BFE00007D1401E60806670044A00210448FFF7B4
:10BFF000E5FE70BD44280020B4200020F5DA0100E1
:10C0000028DD0100F8B5214C028800271E4DE68985
:10C01000102A15D01E49112A21D0122A2DD0502ABB
:10C020001CD1C288801DB24218D14289022A15D182
:10C03000427B037B10021843C007C00F0CD112E0F3
:10C040008188698001461048082218310C30FFF7BA
:10C05000A7F86F70002E01D100F00EFAF8BD002095
:10C06000C04368806F700868FFF744FF0028F5D070
:10C07000A1690029F2D08847F8BD0822811802483A
:10C080000C30FFF78DF8E7E7B420002044280020AB
:10C0900028DD01007CB5054608880C460930904231
:10C0A00001D90C207CBD684671DF0028FAD12188B7
:10C0B0000820685420881B21401C80B2208029540D
:10C0C000208800A9401C80B220804019062201313E
:10C0D000FFF766F820886946801D80B220800978C5
:10C0E000002900D0012129542088401C20800020F4
:10C0F0007CBD000010B5044600F01EFF2046FFF78F
:10C1000081FF2146014800F061F810BD5023002056
:10C1100003B585B0042269460A820021009101918D
:10C1200002910391012269468A70428A0A8006A917
:10C13000039104A90291808B6946A6DF07B000BD78
:10C1400003B585B0042269460A820021009101915D
:10C1500002910391012269468A7042880A8006A9E9
:10C16000039104A90291808B6946A6DF07B000BD48
:10C1700010B50446002086B0C043A08312480FC803
:10C1800003936B4607C321461A31684663DF0028D4
:10C1900018D1A17E68468174A921490101822246F5
:10C1A00004A90120A0DF00280CD1204600F022FACB
:10C1B000002807D1204601F05BF8002802D1204674
:10C1C00000F07AF806B010BD2CDD010010B50A8829
:10C1D000102A06D0112A06D0502A01D100F002FF01
:10C1E00010BD898801E00021C943818310BD03B5DA
:10C1F00085B0042269460A820021009101910291D2
:10C200000391012269468A7042890A8006A9039136
:10C2100004A90291808B6946A6DF07B000BD00002B
:10C2200000B51D4889B080680790002348221B494B
:10C2300007A801F003F8002801D0FFF7B3FD6A4614
:10C240000121002000F0E2FF002801D0FFF7AAFD45
:10C25000134800F031FF002801D0FFF7A3FD684626
:10C2600000F0CAFF002801D0FFF79CFD05A871DF90
:10C27000002801D0FFF796FD05A9002070DF0028F7
:10C2800001D0FFF78FFD074800F0ACFF002801D078
:10C29000FFF788FD09B000BD0CDD01004021002042
:10C2A000E81F0020F5C001000249091820200856A7
:10C2B000704700006028002030B58FB005461C2173
:10C2C0006846FEF786FF694608781A2108436946E2
:10C2D0000870002401940394049405940694A87EA5
:10C2E00008A98870154869460884601C0007000F7B
:10C2F00010300794087711204877887FF92108408B
:10C30000F721801C0840EF210840400840006946A2
:10C310008877142109A8FEF75CFF08A8099007A8F0
:10C320000A90042069468885CC8508860D942B46A2
:10C330002888123309AAA2DF0FB030BD25150000EE
:10C34000F8B52348C16800293ED00E6821494C68E1
:10C350000769C078E11B0D022D0AED1C002814D1DD
:10C3600001201D4A000450601B4A403A50601B499E
:10C37000400008601A4908601A49012008602F200F
:10C38000FEF7B8FE12490120C870B54200D235460A
:10C39000E81900020F4B000A403318600D4A51683B
:10C3A000001B091B0902090A0002000AC91C81427C
:10C3B00009D9506818602F20FEF79CFE012007491C
:10C3C000400480390860F8BD00F02AFEF8BD000086
:10C3D000E0200020001501404013014080E200E011
:10C3E00000E100E000100140F8B506461088144650
:10C3F0008446801D0D46984201D90C20F8BD328834
:10C400000720062AFAD31927FF01184BBA4201D98F
:10C410009A42F3D171880629F0D3B94201D99942E1
:10C42000ECD19A4203D0994201D08A42E6D8052144
:10C430006046295420881221401C80B22080295453
:10C440002088401C80B220804119308801F04CFBCC
:10C450002188401880B220804119708801F044FB87
:10C460002188401820800020F8BD0000FFFF000058
:10C4700010B5FFF797FC10BDF8B5164800F0A8F905
:10C48000144D00260C3D144C002807D0616900298A
:10C490001CD001206A461070684616E028780028F3
:10C4A00005D06169002911D0684606700DE06878F2
:10C4B00000280DD0A168094800220068FFF7DCFCC5
:10C4C000002803D0A169002900D088472E70F8BD4C
:10C4D0006168F0E7C02000204428002028DD01002A
:10C4E00010B50E4900234A788C78A24212D0521C13
:10C4F000D2B24A70022A00D14B704A78074B9200A0
:10C5000018339A580260086910180002000A08617E
:10C51000012010BD0360002010BD0000E0200020BD
:10C5200010B504480249006BFEF753FE10BD000031
:10C53000B40400008020002010B5044902480863BC
:10C540000349FEF746FE10BD6E2300208020002028
:10C55000B4040000F8B506460A480D4600780121EB
:10C5600008430B4600240222694601F099F900288D
:10C5700006D06846007830706846407828700124FC
:10C580002046F8BDD020002010B5054801231A46EA
:10C590000249007801F084F910BD000045DD01007A
:10C5A000D020002010B5054801231A460249007822
:10C5B00001F076F910BD000044DD0100D02000201C
:10C5C000F8B506460A480D460078012108430B4697
:10C5D00000240222694601F063F9002806D068466B
:10C5E0000078307068464078287001242046F8BDF5
:10C5F000D020002030B58FB005461C216846FEF7DC
:10C60000E8FD694608781A21084369460870002445
:10C6100001940394049405940694A87E08A9887054
:10C62000154869460884601C0007000F1030079405
:10C63000087711204877887FF9210840F721801C6E
:10C640000840EF21084040084000694688771421DF
:10C6500009A8FEF7BEFD08A8099007A80A900420C3
:10C6600069468885CC8508860D942888AB1C09AA64
:10C67000A2DF0FB030BD00002315000010B5FFF79A
:10C6800083FF10BD1CB5002401A96846FFF762FFB7
:10C6900000281DD0684600780422010268468256B0
:10C6A0000C4C90098001081880B2A080FEF758FF5A
:10C6B0000F21C943FEF72EFE0749FEF7EEFD07499D
:10C6C000FEF792FDE0600221E06801F001FB044604
:10C6D00020461CBDD02000200000FA420000C0C04F
:10C6E00010B5FFF75FFF10BD1CB5002401A9684617
:10C6F000FFF766FF002823D0684600780422010275
:10C70000684682560F4CD008C000081880B260807E
:10C71000FEF726FF0F21C943FEF7FCFDFEF740FFA1
:10C72000094A0A4BFEF7B4FE094A0A4BFEF7FEFD22
:10C73000FEF74AFFA0600221A06801F0C9FA044692
:10C7400020461CBDD0200020D7A3703D0AF76540CD
:10C75000CDCCCCCCCC6C47C0F8B51C4C2078002894
:10C7600033D02069002807D00026E068002805D0D3
:10C770000025002E04D011E00126F6E70125F8E798
:10C78000684652DF052804D0002804D0FFF70AFBD2
:10C7900004E0012602E0216900988847002D10D1AD
:10C7A000608869460880A06861DF052804D00028F9
:10C7B00004D0FFF7F7FA04E0012502E0E168A06881
:10C7C0008847002EDCD0002DD3D0F8BD00210020FA
:10C7D000418805480288914204D34088814201D8AB
:10C7E0000120704700207047B82000201048018CBD
:10C7F000C9B2012917D1818C090714D1018D09060D
:10C800000A0F03D1828D1206120F0ED0090F0129D3
:10C8100003D1828D1206120F07D0032903D1808D18
:10C820000006000F01D00020704701207047000073
:10C83000C00F00F030B51588EC1C9C4201D90C20CB
:10C8400030BD02244C5513881C255B1C9BB2138001
:10C85000CD5413885B1C9BB21380012807D002289B
:10C8600007D0032807D0042807D0072030BD0020B8
:10C8700004E0012002E0CC5401E00320C8541088F9
:10C88000401C1080002030BDF8B52C49C8680A69EA
:10C890000C780F7989688646944600913EE00099AD
:10C8A000E20055182A7836E0182353436968521C71
:10C8B000C918AB78D2B2934200D100220B78022B78
:10C8C00002D0032B27D123E04E680346014603E044
:10C8D000B14204D00B46C96900291CD0F8E70029F1
:10C8E00019D08B4208D1C069002805D1144F012608
:10C8F000BE600026B44601270E68C969D9610029C7
:10C9000009D00B689B190B6005E00174C06900E059
:10C9100000210028F9D169789142C5D12146641ED1
:10C92000E4B20029BBD1054962460A61C8600F71B3
:10C93000704501D00120F8BD0020F8BDE0200020A6
:10C9400000100140F8B5044631480026C168009146
:10C9500007784EE02E48F90080680D1843E0002C5F
:10C9600002D02046E4691FE02878182141436A6814
:10C97000401CC0B251182870AA78904200D12E7085
:10C980000A784868012A30D1027C002A2DD18A68B1
:10C990004260CA6882600A69C260496981611C4953
:10C9A0000979002900D04660194943680A699C4604
:10C9B000991A0902174B090A994202D2826889180A
:10C9C00007E06146511A09028268090A8A4202D9BF
:10C9D000511A016000E00660466001218660017422
:10C9E000C66100F0D3FC002CB9D128786978884260
:10C9F000BAD138467F1EFFB20028ABD10448C168C7
:10CA00000098814201D00120F8BD0020F8BD00004F
:10CA1000E0200020FFFF7F000020012502273F4982
:10CA20009EB0032604462A4682401203920F02D08B
:10CA3000820052181660401C2028F4D30321384885
:10CA40008904C1608460FFF777FD00F039FE01F0D2
:10CA50002FF9FFF7E5FB1120694608720A2231A180
:10CA600002A87CDF002801D0FFF79CF90094502138
:10CA7000684601940180A0214180FF21848091318A
:10CA8000C1807ADF002801D0FFF78CF92848FFF732
:10CA90006FFB002801D0FFF785F9264840681C90FD
:10CAA0002348817E18A8817438216846FEF791FBDF
:10CAB0006846077085700621C17038210EA8FEF700
:10CAC00088FB10A805811CA813900EA96846FFF7E3
:10CAD0003BFA002801D0FFF765F91C216846FEF7F4
:10CAE00078FB052040040190801002900094684675
:10CAF0000673C48104741048059010480690684677
:10CB0000FFF756FA002801D0FFF74CF9FFF71EF99E
:10CB100048DF0028FCD0FFF745F9F9E7000700508F
:10CB2000000500505248545F53656E736F720000E9
:10CB3000502300200CDD0100C5CF010071C40100AD
:10CB400070B5144682880E4605462088111D41188E
:10CB5000921C994201D8FE2A01D90C2070BD521CAA
:10CB600032542088FF21401C80B22080315420881C
:10CB7000401C80B220808119288800F0B5FF2188F0
:10CB8000401880B22080AA88002A09D0A96800290C
:10CB900008D08019FEF704FB2088A988401820805F
:10CBA000002070BD072070BDF0B5364B09241E6B08
:10CBB000E4013419658EC82D01D9C92500E06D1C2A
:10CBC0006586258E6D1CADB22586C82D02D3002545
:10CBD000258603E0002D01D06D1E00E0C7259D8154
:10CBE000678EACB2DF8165007053A8190326360248
:10CBF00080190184196B00206918FF318131088286
:10CC0000C82F2ED3002C1ED0601E00B21D6B08E072
:10CC100041004919FF3181310E8AB618401E0E823B
:10CC200000B20028F4DAC7201B6B641C08E0410046
:10CC3000C918FF3181310D8AAD18401E0D8200B236
:10CC4000A042F4DAF0BD1B6BC7204100C918FF31C8
:10CC500081310C8A401EA41800B20C820128F4DA3B
:10CC6000F0BD641E20B21B6B08E04100C918FF3103
:10CC700081310C8AA418401E0C8200B20028F4DA1C
:10CC8000F0BD00008020002010B50D4909220B6B7B
:10CC9000D2019A18138E548E5B1E9BB20B82118E9A
:10CCA000491E89B2091AC82C02D90AB2002A01DB2E
:10CCB00088B210BDC821081AC01880B210BD00008B
:10CCC00080200020F8B50F4601781446054601295A
:10CCD00002D16878002806D02088821C9A422DD87C
:10CCE000012902D006E00720F8BD69784118891CA7
:10CCF000994223D8181A801E86B268460680218879
:10CD0000B81C081869467DDF0028EDD12878022874
:10CD100005D169460988B14201D809210AE00821F4
:10CD2000012805D16878B04202D86A46108001E037
:10CD30006846068068460088FE2801D90C20F8BDA8
:10CD40002288401CB8542088401C80B2208039546E
:10CD500020886946401C20800988401820800020D7
:10CD6000F8BD00008207D30EFF229A408907090E02
:10CD700010B5994000280BDA03071B0F083B9C08ED
:10CD80000C4BA400E318DC6994430C43DC6107E01E
:10CD90008408094BA400E418236893430B432360E1
:10CDA000C106C90E01208840044908600449086092
:10CDB00010BD000000ED00E000E400E080E200E0D3
:10CDC00000E100E070B5012424048C4003260568CE
:10CDD0003602AD19002B01D06C6000E0AC60006839
:10CDE00089000818052109024018026470BD00007E
:10CDF000016801220A6000790C225043024A022194
:10CE00008018017270470000A8280020F0B5FF25A7
:10CE1000023504688D40FF34FF340234059E2768D4
:10CE2000AF4327600468FF34FF34023425681D4394
:10CE300025603346FFF7C6FFF0BD000070B504461D
:10CE40000D4600790C21264B4143CE18317A00293A
:10CE500001D0082070BD002A02D0002D02D004E0CD
:10CE6000072070BD1F49C0004518326068687060B7
:10CE70000020034606E08100FF3122684131535013
:10CE8000401CC0B261798142F5D82068E978000B76
:10CE900040B2FFF767FF05202168000209186A7891
:10CEA0004B68D2075B085B00D20F13434B602268CC
:10CEB000A9781218936889079B089B00890F0B4378
:10CEC000936021682A780818016912070909090185
:10CED000120F1143016101203072002070BD00006B
:10CEE000A82800203CDD01008200064810180268D6
:10CEF00003231B049A430260026809040A43026088
:10CF000070470000000700500349401800680128DE
:10CF100000D000207047000000600040405800280A
:10CF200000D0012070470322120280184068084098
:10CF300000D001207047000070B50688012200254E
:10CF4000D2041C491C4C1D4B102E10D0112E1DD08C
:10CF500020468088132E27D0522E07D100231A4650
:10CF60001946A9DF002801D0FEF71CFF70BD8A60BA
:10CF7000CD6001229204CA608D608088A08000226A
:10CF80000F491868FEF778FFE56170BDCA608D60D3
:10CF90000020C043A0801868FEF7ACFFE561257053
:10CFA0006581FEF7D3FE70BD00231A4685217FDF21
:10CFB000D8E7000000050050802000200CDD0100B3
:10CFC0008F02000010B50078002807D104483B21EB
:10CFD000808876DF002801D0FEF7E4FE10BD000057
:10CFE00080200020F8B500220092CB88468A0D46AA
:10CFF0001235084CB34202D0C08A834209D10A8A52
:10D0000029466846FEF7CCF8009800682070000CAE
:10D010006060F8BDC8200020000440187047000080
:10D0200070B501240B49600408600B49401088600A
:10D03000094940398860094D6C602F20FEF75AF885
:10D04000AC60074D00242F202C61FEF753F8EC70E4
:10D0500070BD000080E100E040130140001001407D
:10D06000E020002030B50A48FF21C57D0022094C90
:10D070000931094B002D625007D09969437EC2687F
:10D08000D154417E491C417630BD986930BD0000C5
:10D09000B428002000200040002500401FB50123D7
:10D0A0006A46137010720348019106C8684690479B
:10D0B0001FBD0000B428002008B5024900200091DF
:10D0C00008BD00008020002010B50121202805DACD
:10D0D0001A4A8140114201D1194810BD8107C90E79
:10D0E000002808DA0207120F083A9208154B92003E
:10D0F000D218D26904E08208134B9200D218126849
:10D10000CA401106890F042911D200290FD0022923
:10D110000DD00E494C68C306DB0E01229A40002C4C
:10D1200008D0400980000B5813430B5004E004481A
:10D13000401C10BD06480260002010BDFC06FFBC6C
:10D140000120000000ED00E000E400E014210020D8
:10D1500000E100E0FFB50746806A81B01446002870
:10D160003DD0002538462030009033E00C20B96ACD
:10D1700068430E18B088801CFE2802D90C2005B028
:10D18000F0BD22880299401C885420881622401C39
:10D1900080B2208002990A542088401C80B22080EE
:10D1A00002994118308800F09FFC2188401880B215
:10D1B0002080B288002A0AD0B16800290FD0029BD3
:10D1C000C018FDF7EDFF2088B188401820806D1C45
:10D1D0000098EDB2007BA842C8D80020CFE7072016
:10D1E000CDE70000002803D00249C8600020704746
:10D1F0000E207047002100201CB5034901910091C9
:10D20000694660DF1CBD00008020002070B50E461E
:10D210000546144614211046FDF7DBFF01200021CE
:10D2200020802161217326726572002D00D0A072CA
:10D23000002070BD10B5FEF7A7FD10BD70B5002928
:10D2400001D08C0701D0072070BD074C0125A160DB
:10D2500062800649636010DF0028F5D12570162032
:10D26000FFF732FF70BD00000021002035D2010021
:10D2700030B58FB005461C216846FDF7AAFF694608
:10D2800008781A2108436946087000240194039421
:10D29000049405940694A87E08A9887015486946E8
:10D2A0000884601C0007000F1030079408771120D5
:10D2B0004877887FF9210840F721801C0840EF213A
:10D2C00008404008400069468877142109A8FDF706
:10D2D00080FF08A8099007A80A900420694688855D
:10D2E000CC8508860D942B4628880A3309AAA2DF2C
:10D2F0000FB030BD24150000FEB51F4C0025276976
:10D30000E06802906846FFF7EBF80190FFF7BCFA7F
:10D3100006460198002822D000230098E16817E013
:10D320000E680A46864202D9301A086012E0801B55
:10D33000F31800261660D668D169B446002E07D0CF
:10D34000FE183602360A566066469660D561154666
:10D350000029E5D12846E160FFF7F4FA06E0284607
:10D36000FFF7F0FA002801D1002E02D00298FEF754
:10D37000E7FF00202071FEBDE020002001200249CF
:10D38000000508607047000000E200E010B50E4B99
:10D39000D968002906D002680C68A24204D8A21AF3
:10D3A0000A60C161D86010BD0B4604E00B46C96934
:10D3B000121B002904D00C689442F7D3A41A0C6005
:10D3C0000260C161D86110BDE020002010B5FF38B7
:10D3D000412818D11A49194808601A4CA069401C04
:10D3E000A061A06901280FD0A069022811D0A0690E
:10D3F000032814D0A069042815D0A069216A8842A6
:10D4000001D10020A06110BDFFF76EF9FFF768F9A8
:10D4100010BDFFF769F92081FFF730F910BDFFF764
:10D4200031F9E08010BD084806210088615E82B2B3
:10D430000820205EFFF7B8FB10BD00003546526E95
:10D440000006014080200020CC200020F8B576485E
:10D45000764E0278002702200125754C31681300B2
:10D46000FEF733FB08D3054648A6A9AFBED3A0708C
:10D470006070207801282CD0207805282ED02078C4
:10D48000092831D020780A281FD3208981B20020B2
:10D49000FFF7C2FD6062208981B20020FFF7BCFD6A
:10D4A000A0623088617880B2FFF7B6FD0146E06285
:10D4B0006048FEF72DFE5F48616AFEF798FE5D4802
:10D4C000A16AFEF73DFE0A2020702078401C2070E3
:10D4D0009BE0FFF709F9FFF703F9F6E7FFF704F917
:10D4E0002081FFF7CBF8F0E7FFF7CCF8E080ECE71E
:10D4F000A57089E0A07060706089C82839D20921C0
:10D50000206BC9014018408E6189884231D36089FF
:10D51000FFF7BAFBA082226B4000115A8018FF303F
:10D520008130008AFFF778FD6062A08A216B40009D
:10D530004018032109024118FF308130098C008A0C
:10D54000FFF76AFDA0623088617880B2FFF764FD62
:10D550000146E0623748FEF7DBFD3648616AFEF7B8
:10D5600046FE3448A16AFEF7EBFD6089401C6081ED
:10D570004BE0A570657000210846FFF74DFD0021C6
:10D5800060620846FFF748FDA0623088617880B28B
:10D59000FFF742FD0146E0622648FEF7B9FD254847
:10D5A000616AFEF724FE2348A16AFEF7C9FD2CE05C
:10D5B000A570678129E0A070FEF7B2FFA5706570C5
:10D5C000E3E7012901D8356003E0F02901D3F02019
:10D5D000306030683C2141432162A5706570D5E719
:10D5E000A570657088B26178FFF716FD0146E062AC
:10D5F0001048FEF78DFD0F48616AFEF7F8FD0D48F3
:10D60000A16AFEF79DFD67812770E069401CE0611B
:10D61000E0690949884205D3A0880849884201D0B9
:10D62000132176DFF8BD0000C8200020CC200020A8
:10D63000802000205023002040420F00FFFF000008
:10D64000F8B51D4DEC68002C34D01C48002740680C
:10D650002969401A0602360A2068B04218D8361ADC
:10D66000C7192246107CE46900280FD000201074EE
:10D670006B69002B07D0916950699847002805D045
:10D68000FEF790FB02E0516990698847002CE3D1D6
:10D690006978A878814206D1401CC0B2A8700228DF
:10D6A00001D10020A87004490006800D18310F50E8
:10D6B000FFF764FEF8BD0000E020002000150140E7
:10D6C000FEB50023394A05211846FEF78DFB0028D8
:10D6D00001D0FEF767FB364A01213648FEF76EFBA4
:10D6E000032109200091FEF70DFA334C334E651CDF
:10D6F000082700280DD00098FEF712FA00280AD05B
:10D700003068FF2109028843032189030843306000
:10D7100004E0204600E02846FEF744FB0920FEF71F
:10D72000F1F9002810D030680004800FFEF7F8F9F6
:10D7300000280BD02248426801214902002A31D03A
:10D7400002680A43026004E0204600E02846FEF733
:10D7500029FB18491B4A4869896902910190694669
:10D760000F7100208871134801A90C30FFF766FB88
:10D77000002801D0FEF716FB0E4805210C3000688A
:10D78000090240180069104A0021C24001200346E6
:10D79000009008480C30FFF739FB06480C30FFF7C3
:10D7A00027FBFEBD09480160D3E700008821002067
:10D7B0004DD401000CDD01000120000008E400E070
:10D7C00014210020CDD301000024F40000E100E08A
:10D7D000F1B50126174C3546A66180270220E0608E
:10D7E0000420FDF777FC0098384201D0A56000E0E6
:10D7F000E56000F0AFF8002819D07F08EED10227CD
:10D80000E7600420FDF766FCE5610420FDF762FC9B
:10D8100000F0A0F821693040C907CE17761C0640F9
:10D82000E7600420FDF756FCA5613046F8BD0026F0
:10D83000E5E7000000050050F3B50026174C81B065
:10D840000127E761802500F085F8002813D02069C2
:10D85000C00700D02E430220E0600420FDF73AFC10
:10D860006D08F0D10120A06101990E700299002984
:10D8700003D0E06002E00027F4E7A0600420FDF799
:10D8800029FC00F067F8002800D100270220E060A2
:10D890000420FDF71FFC3846FEBD000000050050C7
:10D8A000FFB52B4F81B0012015460E46B86004200D
:10D8B000FDF710FC00F04EF8002812D00120F860AF
:10D8C0000420FDF707FC0220F8600420FDF702FCAD
:10D8D00001240198FFF77CFF04400198C0070AD19A
:10D8E00018E00024F5E7002D0DD001213046FFF7A8
:10D8F000A3FF0440761C28466D1EEDB2002810D010
:10D90000002CF0D10DE00021F0E73078FFF760FF48
:10D910000440761C28466D1EEDB2002801D0002C74
:10D92000F3D10498214681430ED10125FD600420E6
:10D93000FDF7D0FB00F00EF8002804D0BD600420F5
:10D94000FDF7C8FB01200440204605B0F0BD0000F3
:10D950000005005010B5064C0220A0600420FDF721
:10D96000B9FB20694008C007FBD0012010BD0000B2
:10D9700000050050FF2107481D3100224250064893
:10D98000828A8168895C828A521C82820348C161D2
:10D990007047000000200040B4280020002500400F
:10D9A0001FB500216A461170107204488268019206
:10D9B000817506C8684690471FBD0000B428002046
:10D9C000F0B5454D012185B049022846FFF7ABFA75
:10D9D00001270026414C002824D0FF21253128466C
:10D9E000FFF79CFA00281DD0FF2025302E50812003
:10D9F0003B4980008860A07E002800D16F60022132
:10DA0000684601703749086808600390E17D684600
:10DA10000172E0680190E675267606CC6846083CFF
:10DA200090472BE004212846FFF77DFA002825D0F7
:10DA3000FF2109312846FFF771FA00281ED0FFF7B1
:10DA400011FBE07D617E884218D1207E002808D03D
:10DA5000627EE168E0752069E060267666761046B1
:10DA60000AE0A07E002800D16F6081201C49800060
:10DA70008860E675607EE168FFF710FBFF211D31CD
:10DA80002846FFF74BFA00280DD0A18AA07D8142DD
:10DA900002D2FFF76FFF06E0FF211D316E50002814
:10DAA00001D0FFF77DFFFF2145312846FFF736FA09
:10DAB00000280ED0FF2045302E50A07E002800D038
:10DAC0002F60E07D002804D0E675607EE168FFF7F6
:10DAD000E5FA05B0F0BD000000200040B4280020A9
:10DAE00000230040802400400870000A4870022093
:10DAF0007047000038B51549154A488890420FD044
:10DB00004A78144C521CD2B24A70237B934208D3F9
:10DB1000091D75DF002803D0A169002900D08847BE
:10DB200038BD00254D70217C002907D03B2176DFD0
:10DB3000002803D0A169002900D088476169002925
:10DB4000EED068460570884738BD0000B42000203C
:10DB5000FFFF000044280020EFF30580C005C00D42
:10DB60001AD0103840B2002808DA0107090F083926
:10DB700089080C4A89008918C96904E081080A4AA1
:10DB80008900891809688007C00EC1400806800F07
:10DB9000012803D0032803D00220704700207047DB
:10DBA0000120704700ED00E000E400E04278837857
:10DBB000521CD2B2934200D100220378934201D189
:10DBC000002070470A7041684078182250430818B6
:10DBD0007047FFB583B016460C9D0D9C1F46022270
:10DBE00000950194039800F00CF8002807D13B46FB
:10DBF0001022314600950194039800F002F807B016
:10DC0000F0BDFFB583B0074600200C9C86462688F1
:10DC100005463AE07868A900421811886846818074
:10DC20005188C1800022694601A865DF002839D1EA
:10DC3000684601780598814226D17046002801D0B7
:10DC4000002200E002222088891842180D998A4299
:10DC500027D8714600290AD1401C80B22080069A3C
:10DC6000049911542088401C208001208646218878
:10DC700006980A18694601A865DF002812D169468E
:10DC800020880978401820806D1C3888A842C1DCA3
:10DC9000704600280AD02088801B401E80B2FF28D2
:10DCA00002D90C2007B0F0BD069988550020F9E78D
:10DCB00005480121C1604B225204426082680A4338
:10DCC0008260024801607047000501400000014089
:10DCD00010B500220446072900D907210120491C5C
:10DCE00002E00A235843521C8A42FADBFDF738FC53
:10DCF0002146FDF7D2FAFDF73AFC0A21FDF73CFA7E
:10DD0000C9B2052900D3401C00B210BD202100205B
:10DD100020150000010000010090004000040000F8
:10DD200000000003000000002428002023D1BCEAEA
:10DD30005F782315DEEF12121500000000000003CB
:10DD400000000000F3F5E70068DD010080200020FE
:10DD5000A0000000E4BA010008DE0100202100203C
:10DD6000B00F0000F4BA010000000000FFFF000047
:10DD700000000000000000000000000000000000A3
:10DD8000000000000000000060EA00000000000049
:10DD90000000000000000000000000000000000083
:10DDA0000000000000000000000000000000000073
:10DDB0000000000002000000808000000000000061
:10DDC0000000000000000000000000000000000053
:10DDD0000000000000000000000000000000000043
:10DDE0000000000000000000000000000000000033
:10DDF0000000000000000000000000000000000023
:08DE0000000000000024F40002
:040000050001B0C185
:00000001FF
