:020000040001F9
:10B00000F02B0020F5B001000FB1010011B10100DB
:10B010000000000000000000000000000000000030
:10B0200000000000000000000000000013B101005B
:10B03000000000000000000015B1010017B1010080
:10B0400019B1010019B101005DB4010019B101008D
:10B0500019B101000000000099B1010019B101000F
:10B0600019B1010019B4010019B1010019B10100B1
:10B0700019B1010019B1010019B1010019B10100A4
:10B0800019B1010031B3010019B1010019B101007A
:10B0900051B3010019B1010059B3010019B1010008
:10B0A00019B1010019B1010000000000000000000A
:10B0B0000000000000000000000000000000000090
:10B0C0000348854600F056F800480047E9C10100F2
:10B0D000F02B0020401E00BF00BF00BF00BF00BF1C
:10B0E00000BF00BF00BF00BF00BF00BF00BFF1D165
:10B0F000704700000321094802680A4302600848BB
:10B1000002680A4302600748804707480047FEE795
:10B11000FEE7FEE7FEE7FEE7FEE70000240500404D
:10B120005405004079B30100C1B0010003460B4350
:10B130009B0703D009E008C9121F08C0042AFAD2ED
:10B1400003E00B780370401C491C521EF9D2704773
:10B15000D2B201E00270401C491EFBD270470022AF
:10B16000F6E710B513460A4604461946FFF7F0FF06
:10B17000204610BD064C0125064E05E0E36807CCCD
:10B180002B430C3C98471034B442F7D3FFF79CFF95
:10B1900024D0010044D00100F0B50025FF248BB07D
:10B1A000013401262F460195204601F005FA0028BA
:10B1B00008D047484068304204D046480021201853
:10B1C00035430160241D76007F1CA4B2042FEBD30D
:10B1D000FF207D3001F0F0F9002807D03E48002123
:10B1E0000160400705433D48006901903C4C280739
:10B1F00012D0012700262F420AD03A48B200111877
:10B2000008690969C004C00E8903A258890F9047D4
:10B210007F00761C042EEED3002D57DA0020059017
:10B22000401E4DE0A119403108788506AD0E42B2AE
:10B23000521C39D00121A940089A0091114233D003
:10B2400080090390284600F0EFFC8000205804900D
:10B25000002802D10398032826D1039800990328D7
:10B2600002D10598084305901F4AA800801800687D
:10B27000019A8003800F114202D0022802D013E00D
:10B28000032811D10399032907D102281CD00221D8
:10B29000284601F081F97F1CFFB20498002803D0F2
:10B2A000049A284603999047761C042EBAD3002F9F
:10B2B0000CD00A4800690199884207D0019005988E
:10B2C00000273E460890ADE70321E1E70BB0F0BD53
:10B2D00000630040006000407C61004000050050B9
:10B2E0007C23002000650040000700508307FF22F8
:10B2F000DB0E9A408907090E994000280BDA0007F7
:10B30000000F0838830808489B001818C369934346
:10B310000B43C3617047830804489B001B181868DF
:10B32000904308431860704700ED00E000E400E03F
:10B3300010B506490020086048608860C86003496D
:10B3400040390860486001F0DBFB10BD401101404E
:10B3500010B501F025FB10BD10B506484068002867
:10B3600005D08047002801D000F0DCF910BD00F0C6
:10B37000DBFD10BDD020002010B500F01FFE00281E
:10B3800005D01F491D484860C8131E4988611E48E2
:10B39000018CC9B201290BD1828C120708D1028D10
:10B3A0001206120F042A03D1828D1206120F0AD040
:10B3B000012921D1818C09071ED1018D0906090FB0
:10B3C0000A2904D007E0114A01219160F5E7828D36
:10B3D0001206120F05D00D290ED1808D0006000F28
:10B3E0000AD10B480168012904D00A4901600168AB
:10B3F0000129FCD1C021416110BD0000DFFF07C061
:10B4000000050040006C0040C00F00F00006004046
:10B4100000EC064075930000F8B50E4C042700259B
:10B42000BE03A8003146A940FF3041302258002A0F
:10B430000BD003221202A21852680A4205D0002142
:10B440002150054A5168126890476D1CEDB2BD420B
:10B45000E7D3F8BD00900040C423002010B501F0F0
:10B460003DFC10BD02E008C8121F08C1002AFAD135
:10B4700070477047002001E001C1121F002AFBD174
:10B4800070470000202804DA01218140034801426E
:10B4900001D001207047002070470000FC06FFBC6F
:10B4A000042805D2002803D0022801D001207047CB
:10B4B00000207047F7B584B0002516880746158030
:10B4C000406B1446002813D003780598032E51D3FF
:10B4D0000221017021881122491C89B22180425425
:10B4E0002188491C89B2218043542088401C208037
:10B4F000386B00281DD00546208805990246123277
:10B50000B24237D811220A5420881022401C80B23F
:10B5100020800A542088401C20800F202A5C238829
:10B52000401ECA54228840B2521C22800028F5DAFC
:10B530000025384620300290807B002806D0334614
:10B540002246059900F05EFD050014D10298407B6B
:10B55000002806D032462146059800F05BFA050027
:10B5600009D1B878002823D0059886462088001D88
:10B57000B04202D90C2007B0F0BD684679DF002840
:10B58000F9D1218803207246505420881921401C8B
:10B5900080B22080115420887146401C80B22080E7
:10B5A00041186846008801F02DFC21884018208051
:10B5B000F878002817D0218803230A46FB56C91CB7
:10B5C0000598B142D6D80221815421880122491C14
:10B5D00089B2218042542188491C89B22180435478
:10B5E0002088401C20807868002817D021880023FC
:10B5F000C3560A46C91C0598B142BBD802218154E2
:10B6000021880A22491C89B2218042542188491C80
:10B6100089B2218043542088401C2080388900282A
:10B620000AD0009438460196062202210830059B74
:10B6300001F05DFC05009ED1388A00280AD00094F4
:10B6400038460196072203211030059B01F04FFC7C
:10B65000050090D1388B00280AD000943846019616
:10B66000152214211830059B01F041FC050082D100
:10B67000386A002806D033462246059900F074FB4C
:10B680000500D8D1786A002806D0334622460599AD
:10B6900000F03CFE0500CED10298007B002807D0C8
:10B6A000334622463846059901F0A8F80500C2D174
:10B6B0003878002807D0334622463846059900F0EE
:10B6C00059FE0500B7D1284655E7000010B586B0F1
:10B6D00018216846FFF743FD002468460470019472
:10B6E0007D210472C9000182448273DF002801D0E9
:10B6F00000F018F80121034889048160C46006B095
:10B7000010BD000000050050BFF34F8F04490348EF
:10B71000C860BFF34F8F00BFFDE700000400FA05CB
:10B7200000ED00E00EB50021029000916A46019103
:10B730000148FFF7E9FF0EBD01400000094B9B687F
:10B74000002B07D0002A07D0002805D00068037C12
:10B75000002B03D0082070470720704741744261D6
:10B7600000207047B0200020FFB59007002581B071
:10B7700014460E46002832D11B4F002C31D000F069
:10B78000A3FF0498786103203870334618212246BD
:10B7900000204B43BC601834C10089180D704D70F7
:10B7A0008E704C601C19401C0328F5DBFD607D7019
:10B7B00001240E48BD702405046003211420FFF706
:10B7C00095FD0B4804600B4C0198A06003211120EB
:10B7D000FFF78CFD60683861002005B0F0BD0720E0
:10B7E000FBE7BD60FBE70000B020002080E200E046
:10B7F00000E100E000150140FEB50D461B4917466B
:10B800008968044600292AD0002C28D0052D01D2B1
:10B810000720FEBD6069002821D0607C012820D06F
:10B82000002601F027FBC0001049019089684018EC
:10B83000694601F049FB002815D0012101700C492F
:10B84000446049680830E2C0084901988968411895
:10B8500068460078487001F0E5F80020FEBD082039
:10B86000FEBD2E46DDE70420FEBD0000B020002016
:10B8700000150140F8B5134D0446A96800291CD0F5
:10B88000002C1AD06069002817D00026267401F019
:10B89000F1FAC700A8686946381801F015FB0028BE
:10B8A0000DD0022101704460A868391868460078FC
:10B8B000487001F0B7F83046F8BD0820F8BD042004
:10B8C000F8BD0000B0200020F0B50C4693B01F2159
:10B8D0006A461180072600279180002809D0C17888
:10B8E00049070DD502A9FFF7E5FD002809D102ADF2
:10B8F00001E000251780002C0ED0E078002802D04F
:10B90000304613B0F0BD01AA0AA92046FFF7D2FDC8
:10B910000028F6D10AAA02E068460022878068461D
:10B920008088C3B268460088C1B2284672DFE8E763
:10B9300070B5054601461C220E48FFF7F7FB0E4C7A
:10B94000002626702968002906D00822201DFFF74E
:10B95000EDFB201D7ADF02E00748001D7BDF002899
:10B9600007D1401E60806670044A00210448FFF73A
:10B97000E5FE70BD602300209420002011CE010060
:10B9800008D00100F8B5214C028800271E4DE68939
:10B99000102A15D01E49112A21D0122A2DD0502A42
:10B9A0001CD1C288801DB24218D14289022A15D109
:10B9B000427B037B10021843C007C00F0CD112E07A
:10B9C0008188698001461048082218310C30FFF741
:10B9D000ADFB6F70002E01D100F00EFAF8BD002013
:10B9E000C04368806F700868FFF744FF0028F5D0F7
:10B9F000A1690029F2D08847F8BD082281180248C1
:10BA00000C30FFF793FBE7E7942000206023002031
:10BA100008D001007CB5054608880C4609309042E4
:10BA200001D90C207CBD684671DF0028FAD121883D
:10BA30000820685420881B21401C80B22080295493
:10BA4000208800A9401C80B22080401906220131C4
:10BA5000FFF76CFB20886946801D80B22080097842
:10BA6000002900D0012129542088401C208000207A
:10BA70007CBD000010B5044600F0B6FD2046FFF77F
:10BA800081FF2146014800F061F810BD202300200D
:10BA900003B585B0042269460A8200210091019114
:10BAA00002910391012269468A70428A0A8006A99E
:10BAB000039104A90291808B6946A6DF07B000BDFF
:10BAC00003B585B0042269460A82002100910191E4
:10BAD00002910391012269468A7042880A8006A970
:10BAE000039104A90291808B6946A6DF07B000BDCF
:10BAF00010B50446002086B0C043A08312480FC88A
:10BB000003936B4607C321461A31684663DF00285A
:10BB100018D1A17E68468174A9214901018222467B
:10BB200004A90120A0DF00280CD1204600F0B8F9BC
:10BB3000002807D1204600F0EFFE002802D1204661
:10BB400000F07AF806B010BD0CD0010010B50A88DC
:10BB5000102A06D0112A06D0502A01D100F096FDF5
:10BB600010BD898801E00021C943818310BD03B560
:10BB700085B0042269460A82002100910191029158
:10BB80000391012269468A7042890A8006A90391BD
:10BB900004A90291808B6946A6DF07B000BD0000B2
:10BBA00000B51D4889B080680790002348221B49D2
:10BBB00007A800F097FE002801D0FFF7B3FD6A4602
:10BBC0000121002000F076FE002801D0FFF7AAFD39
:10BBD000134800F0C5FD002801D0FFF7A3FD68461B
:10BBE00000F05EFE002801D0FFF79CFD05A871DF84
:10BBF000002801D0FFF796FD05A9002070DF00287E
:10BC000001D0FFF78FFD074800F040FE002801D06B
:10BC1000FFF788FD09B000BDECCF01001021002026
:10BC2000E81F002075BA01000249091820200856B3
:10BC3000704700007C23002030B58FB005461C21E2
:10BC40006846FFF78CFA694608781A210843694666
:10BC50000870002401940394049405940694A87E2B
:10BC600008A98870154869460884601C0007000F01
:10BC700010300794087711204877887FF921084011
:10BC8000F721801C0840EF21084040084000694629
:10BC90008877142109A8FFF762FA08A8099007A875
:10BCA0000A90042069468885CC8508860D942B4629
:10BCB0002888123309AAA2DF0FB030BD2515000075
:10BCC000F8B52348C16800293ED00E6821494C6868
:10BCD0000769C078E11B0D022D0AED1C002814D164
:10BCE00001201D4A000450601B4A403A50601B4925
:10BCF000400008601A4908601A49012008602F2096
:10BD0000FFF7E8F912490120C870B54200D2354664
:10BD1000E81900020F4B000A403318600D4A5168C1
:10BD2000001B091B0902090A0002000AC91C814202
:10BD300009D9506818602F20FFF7CCF90120074976
:10BD4000400480390860F8BD00F0BEFCF8BD00007A
:10BD5000B0200020001501404013014080E200E0C7
:10BD600000E100E000100140F8B5064610881446D6
:10BD70008446801D0D46984201D90C20F8BD3288BA
:10BD80000720062AFAD31927FF01184BBA4201D916
:10BD90009A42F3D171880629F0D3B94201D9994268
:10BDA000ECD19A4203D0994201D08A42E6D80521CB
:10BDB0006046295420881221401C80B220802954DA
:10BDC0002088401C80B220804119308801F01AF888
:10BDD0002188401880B220804119708801F012F843
:10BDE0002188401820800020F8BD0000FFFF0000DF
:10BDF00010B5FFF797FC10BDF8B5164800F0D0F865
:10BE0000144D00260C3D144C002807D06169002910
:10BE10001CD001206A461070684616E02878002879
:10BE200005D06169002911D0684606700DE0687878
:10BE300000280DD0A168094800220068FFF7DCFC4B
:10BE4000002803D0A169002900D088472E70F8BDD2
:10BE50006168F0E7A02000206023002008D00100E6
:10BE600010B50E4900234A788C78A24212D0521C99
:10BE7000D2B24A70022A00D14B704A78074B920026
:10BE800018339A580260086910180002000A086105
:10BE9000012010BD0360002010BD0000B020002074
:10BEA00030B58FB005461C216846FFF758F9694642
:10BEB00008781A2108436946087000240194039405
:10BEC000049405940694A87E08A9887015486946CC
:10BED0000884601C0007000F1030079408771120B9
:10BEE0004877887FF9210840F721801C0840EF211E
:10BEF00008404008400069468877142109A8FFF7E8
:10BF00002EF908A8099007A80A9004206946888598
:10BF1000CC8508860D942888AB1C09AAA2DF0FB037
:10BF200030BD000023150000F8B51C4C2078002817
:10BF300033D02069002807D00026E068002805D00B
:10BF40000025002E04D011E00126F6E70125F8E7D0
:10BF5000684652DF052804D0002804D0FFF7E2FB32
:10BF600004E0012602E0216900988847002D10D1E5
:10BF7000608869460880A06861DF052804D0002831
:10BF800004D0FFF7CFFB04E0012502E0E168A068E0
:10BF90008847002EDCD0002DD3D0F8BDD020002063
:10BFA000418805480288914204D34088814201D8E3
:10BFB0000120704700207047982000201048018C15
:10BFC000C9B2012917D1818C090714D1018D090645
:10BFD0000A0F03D1828D1206120F0ED0090F01290C
:10BFE00003D1828D1206120F07D0032903D1808D51
:10BFF0000006000F01D000207047012070470000AC
:10C00000C00F00F030B51588EC1C9C4201D90C2003
:10C0100030BD02244C5513881C255B1C9BB2138039
:10C02000CD5413885B1C9BB21380012807D00228D3
:10C0300007D0032807D0042807D0072030BD0020F0
:10C0400004E0012002E0CC5401E00320C854108831
:10C05000401C1080002030BDF8B52C49C8680A6922
:10C060000C780F7989688646944600913EE00099E5
:10C07000E20055182A7836E0182353436968521CA9
:10C08000C918AB78D2B2934200D100220B78022BB0
:10C0900002D0032B27D123E04E680346014603E07C
:10C0A000B14204D00B46C96900291CD0F8E7002929
:10C0B00019D08B4208D1C069002805D1144F012640
:10C0C000BE600026B44601270E68C969D9610029FF
:10C0D00009D00B689B190B6005E00174C06900E092
:10C0E00000210028F9D169789142C5D12146641E0A
:10C0F000E4B20029BBD1054962460A61C8600F71EC
:10C10000704501D00120F8BD0020F8BDB02000200E
:10C1100000100140F8B5044631480026C16800917E
:10C1200007784EE02E48F90080680D1843E0002C97
:10C1300002D02046E4691FE02878182141436A684C
:10C14000401CC0B251182870AA78904200D12E70BD
:10C150000A784868012A30D1027C002A2DD18A68E9
:10C160004260CA6882600A69C260496981611C498B
:10C170000979002900D04660194943680A699C463C
:10C18000991A0902174B090A994202D28268891842
:10C1900007E06146511A09028268090A8A4202D9F7
:10C1A000511A016000E0066046600121866001745A
:10C1B000C66100F03FFC002CB9D12878697888422C
:10C1C000BAD138467F1EFFB20028ABD10448C168FF
:10C1D0000098814201D00120F8BD0020F8BD000088
:10C1E000B0200020FFFF7F000020012502273E49EC
:10C1F0009EB0032604462A4682401203920F02D0C4
:10C20000820052181660401C2028F4D303213748BE
:10C210008904C160846000F0B3FC00F0D7FEFFF732
:10C22000BFFC1120694608720A2231A102A87CDFF6
:10C23000002801D0FFF776FA009450216846019457
:10C240000180A0214180FF2184809131C1807ADF6B
:10C25000002801D0FFF766FA2848FFF749FC0028BC
:10C2600001D0FFF75FFA264840681C902348817E82
:10C2700018A8817438216846FEF771FF6846077078
:10C2800085700621C17038210EA8FEF768FF10A83E
:10C2900005811CA813900EA96846FFF715FB00281E
:10C2A00001D0FFF73FFA1C216846FEF758FF052032
:10C2B0004004019080100290009468460673C48187
:10C2C000047410480590104806906846FFF730FB4C
:10C2D000002801D0FFF726FAFFF7F8F948DF002819
:10C2E000FCD0FFF71FFAF9E70007005000050050E7
:10C2F0005248545F53656E736F7200002023002014
:10C30000ECCF01006DC60100F1BD010070B514460F
:10C3100082880E4605462088111D4118921C9942BC
:10C3200001D8FE2A01D90C2070BD521C325420883D
:10C33000FF21401C80B2208031542088401C80B2F4
:10C3400020808119288800F05DFD2188401880B286
:10C350002080AA88002A09D0A968002908D080195D
:10C36000FEF7E4FE2088A98840182080002070BDD8
:10C37000072070BDF8B50F4601781446054601291F
:10C3800002D16878002806D02088821C9A422DD8D5
:10C39000012902D006E00720F8BD69784118891C00
:10C3A000994223D8181A801E86B2684606802188D2
:10C3B000B81C081869467DDF0028EDD128780228CE
:10C3C00005D169460988B14201D809210AE008214E
:10C3D000012805D16878B04202D86A46108001E091
:10C3E0006846068068460088FE2801D90C20F8BD02
:10C3F0002288401CB8542088401C80B220803954C8
:10C4000020886946401C2080098840182080002030
:10C41000F8BD00008207D30EFF229A408907090E5B
:10C4200010B5994000280BDA03071B0F083B9C0846
:10C430000C4BA400E318DC6994430C43DC6107E077
:10C440008408094BA400E418236893430B4323603A
:10C45000C106C90E012088400449086004490860EB
:10C4600010BD000000ED00E000E400E080E200E02C
:10C4700000E100E070B5012424048C400326056827
:10C480003602AD19002B01D06C6000E0AC60006892
:10C4900089000818052109024018026470BD0000D7
:10C4A000016801220A6000790C225043024A0221ED
:10C4B0008018017270470000C4230020F0B5FF25EA
:10C4C000023504688D40FF34FF340234059E27682E
:10C4D000AF4327600468FF34FF34023425681D43EE
:10C4E00025603346FFF7C6FFF0BD000070B5044677
:10C4F0000D4600790C21264B4143CE18317A002994
:10C5000001D0082070BD002A02D0002D02D004E026
:10C51000072070BD1F49C000451832606868706010
:10C520000020034606E08100FF312268413153506C
:10C53000401CC0B261798142F5D82068E978000BCF
:10C5400040B2FFF767FF05202168000209186A78EA
:10C550004B68D2075B085B00D20F13434B60226825
:10C56000A9781218936889079B089B00890F0B43D1
:10C57000936021682A7808180169120709090901DE
:10C58000120F1143016101203072002070BD0000C4
:10C59000C42300201CD00100820006481018026845
:10C5A00003231B049A430260026809040A430260E1
:10C5B0007047000000070050034940180068012838
:10C5C00000D0002070470000006000404058002864
:10C5D00000D00120704703221202801840680840F2
:10C5E00000D001207047000070B5068801250022A8
:10C5F000ED041A491A4C1B4B102E10D0112E1CD0D2
:10C6000020464088132E23D0522E07D100231A46ED
:10C610001946A9DF002801D0FFF784F870BD8D60AE
:10C62000CA600125AD04CD608A60808860800022E8
:10C630000D491868FFF7E0F870BDCD608A600020F2
:10C64000C04360801868FFF715F9FFF73FF870BD29
:10C6500000231A4685217FDFDCE70000000500503B
:10C6600080200020ECCF01008F02000010B5007880
:10C67000002807D104483B21408876DF002801D0FC
:10C68000FFF750F810BD000080200020F8B5002210
:10C690000092CB88468A0D461235084CB34202D030
:10C6A000C08A834209D10A8A29466846FEF73EFDC0
:10C6B000009800682070000C6060F8BDA820002081
:10C6C000000440187047000070B501240B49600455
:10C6D00008600B4940108860094940398860094D5D
:10C6E0006C602F20FEF7F6FCAC60074D00242F2075
:10C6F0002C61FEF7EFFCEC7070BD000080E100E003
:10C700004013014000100140B020002030B50A481D
:10C71000FF21C57D0022094C0931094B002D6250D3
:10C7200007D09969437EC268D154417E491C417645
:10C7300030BD986930BD0000D023002000200040AB
:10C74000002500401FB501236A461370107203488C
:10C75000019106C8684690471FBD0000D023002005
:10C7600008B502490020009108BD0000802000208B
:10C7700010B50121202805DA1A4A8140114201D161
:10C78000194810BD8107C90E002808DA0207120FE8
:10C79000083A9208154B9200D218D26904E0820838
:10C7A000134B9200D2181268CA401106890F04294F
:10C7B00011D200290FD002290DD00E494C68C306B2
:10C7C000DB0E01229A40002C08D0400980000B5853
:10C7D00013430B5004E00448401C10BD064802609F
:10C7E000002010BDFC06FFBC0120000000ED00E0B1
:10C7F00000E400E0E420002000E100E0FFB507468F
:10C80000806A81B0144600283DD00025384620308B
:10C81000009033E00C20B96A68430E18B088801C81
:10C82000FE2802D90C2005B0F0BD22880299401CD8
:10C83000885420881622401C80B2208002990A5415
:10C840002088401C80B2208002994118308800F076
:10C85000D9FA2188401880B22080B288002A0AD0F4
:10C86000B16800290FD0029BC018FEF75FFC20883A
:10C87000B188401820806D1C0098EDB2007BA84262
:10C88000C8D80020CFE70720CDE70000002803D05C
:10C890000249C860002070470E207047D020002059
:10C8A0001CB5034901910091694660DF1CBD000081
:10C8B0008020002070B50E4605461446142110460F
:10C8C000FEF74DFC0120002120802161217326729A
:10C8D0006572002D00D0A072002070BD10B5FEF76B
:10C8E00013FF10BD70B5002901D08C0701D00720BF
:10C8F00070BD074C0125A16062800649636010DFAE
:10C900000028F5D125701620FFF732FF70BD00001A
:10C91000D0200020DDC8010030B58FB005461C21B5
:10C920006846FEF71CFC694608781A2108436946E8
:10C930000870002401940394049405940694A87E3E
:10C9400008A98870154869460884601C0007000F14
:10C9500010300794087711204877887FF921084024
:10C96000F721801C0840EF2108404008400069463C
:10C970008877142109A8FEF7F2FB08A8099007A8F8
:10C980000A90042069468885CC8508860D942B463C
:10C9900028880A3309AAA2DF0FB030BD2415000091
:10C9A000FEB51F4C00252769E06802906846FFF736
:10C9B00057FA0190FFF750FB06460198002822D055
:10C9C00000230098E16817E00E680A46864202D903
:10C9D000301A086012E0801BF31800261660D66833
:10C9E000D169B446002E07D0FE183602360A5660CA
:10C9F00066469660D56115460029E5D12846E16076
:10CA0000FFF788FB06E02846FFF784FB002801D1EA
:10CA1000002E02D00298FFF753F900202071FEBDCE
:10CA2000B020002001200249000508607047000086
:10CA300000E200E010B50E4BD968002906D002686C
:10CA40000C68A24204D8A21A0A60C161D86010BD65
:10CA50000B4604E00B46C969121B002904D00C6880
:10CA60009442F7D3A41A0C600260C161D86110BD72
:10CA7000B02000207047000010B51A481A4C00780A
:10CA8000012817D1A08881B20020FFF719FEE060CD
:10CA9000A08881B20020FFF713FE2061617813485F
:10CAA000FEF7F6FF1148E168FFF761F80F482169CA
:10CAB000FFF706F8E088401CE080E08896280CD359
:10CAC0000020207060880A49884201D0132176DF57
:10CAD00008483C2100684843A060084906480860AF
:10CAE00010BD0000A820002080200020202300206E
:10CAF000FFFF0000AC2000203546526E00060140CA
:10CB0000F8B51D4DEC68002C34D01C480027406857
:10CB10002969401A0602360A2068B04218D8361A27
:10CB2000C7192246107CE46900280FD00020107439
:10CB30006B69002B07D0916950699847002805D090
:10CB4000FEF7F0FD02E0516990698847002CE3D1BF
:10CB50006978A878814206D1401CC0B2A87002282A
:10CB600001D10020A87004490006800D18310F5033
:10CB7000FFF758FFF8BD0000B0200020001501406D
:10CB8000FEB50023394A05211846FEF7EDFD0028C1
:10CB900001D0FEF7C7FD364A01213648FEF7CEFD2B
:10CBA000032109200091FEF76DFC334C334E651CC8
:10CBB000082700280DD00098FEF772FC00280AD044
:10CBC0003068FF210902884303218903084330604C
:10CBD00004E0204600E02846FEF7A4FD0920FEF709
:10CBE00051FC002810D030680004800FFEF758FC7C
:10CBF00000280BD02248426801214902002A31D086
:10CC000002680A43026004E0204600E02846FEF77E
:10CC100089FD18491B4A4869896902910190694652
:10CC20000F7100208871134801A90C30FFF75EFCDA
:10CC3000002801D0FEF776FD0E4805210C30006873
:10CC4000090240180069104A0021C2400120034631
:10CC5000009008480C30FFF731FC06480C30FFF715
:10CC60001FFCFEBD09480160D3E7000058210020E9
:10CC700079CA0100ECCF01000120000008E400E0C7
:10CC8000E420002075CA01000024F40000E100E067
:10CC9000FF2107481D31002242500648828A8168E0
:10CCA000895C828A521C82820348C16170470000FD
:10CCB00000200040D0230020002500401FB50021A7
:10CCC0006A4611701072044882680192817506C824
:10CCD000684690471FBD0000D0230020F0B5454DA9
:10CCE000012185B049022846FFF775FC012700267F
:10CCF000414C002824D0FF2125312846FFF766FC4F
:10CD000000281DD0FF2025302E5081203B49800077
:10CD10008860A07E002800D16F6002216846017003
:10CD20003749086808600390E17D68460172E06851
:10CD30000190E675267606CC6846083C90472BE0C5
:10CD400004212846FFF747FC002825D0FF210931A0
:10CD50002846FFF73BFC00281ED0FFF7D7FCE07DFC
:10CD6000617E884218D1207E002808D0627EE1686A
:10CD7000E0752069E0602676667610460AE0A07EBF
:10CD8000002800D16F6081201C4980008860E67512
:10CD9000607EE168FFF7D6FCFF211D312846FFF7D2
:10CDA00015FC00280DD0A18AA07D814202D2FFF798
:10CDB0006FFF06E0FF211D316E50002801D0FFF704
:10CDC0007DFFFF2145312846FFF700FC00280ED0EB
:10CDD000FF2045302E50A07E002800D02F60E07D3F
:10CDE000002804D0E675607EE168FFF7ABFC05B073
:10CDF000F0BD000000200040D023002000230040B0
:10CE0000802400400870000A48700220704700002B
:10CE100038B51549154A488890420FD04A78144CC5
:10CE2000521CD2B24A70237B934208D3091D75DF8E
:10CE3000002803D0A169002900D0884738BD00250B
:10CE40004D70217C002907D03B2176DF002803D0DC
:10CE5000A169002900D0884761690029EED06846A1
:10CE60000570884738BD000094200020FFFF0000B7
:10CE700060230020EFF30580C005C00D1AD01038E4
:10CE800040B2002808DA0107090F083989080C4A5E
:10CE900089008918C96904E081080A4A890089184B
:10CEA00009688007C00EC1400806800F012803D022
:10CEB000032803D0022070470020704701207047EC
:10CEC00000ED00E000E400E042788378521CD2B22A
:10CED000934200D100220378934201D10020704791
:10CEE0000A70416840781822504308187047FFB50F
:10CEF00083B016460C9D0D9C1F460222009501949E
:10CF0000039800F00CF8002807D13B461022314668
:10CF100000950194039800F002F807B0F0BDFFB54A
:10CF200083B0074600200C9C8646268805463AE0DA
:10CF30007868A90042181188684681805188C180AC
:10CF40000022694601A865DF002839D168460178CA
:10CF50000598814226D17046002801D0002200E0C9
:10CF600002222088891842180D998A4227D87146D2
:10CF700000290AD1401C80B22080069A04991154DD
:10CF80002088401C208001208646218806980A18A7
:10CF9000694601A865DF002812D169462088097812
:10CFA000401820806D1C3888A842C1DC70460028DB
:10CFB0000AD02088801B401E80B2FF2802D90C2096
:10CFC00007B0F0BD069988550020F9E70548012112
:10CFD000C1604B225204426082680A438260024868
:10CFE000016070470005014000000140F020002072
:10CFF0002015000001000001009000400004000026
:10D0000000000003000000004023002023D1BCEA00
:10D010005F782315DEEF12121500000000000003F8
:10D020000000000044D001008020002070000000BB
:10D0300064B40100B4D00100F0200020000B000017
:10D0400074B401000000FFFF0000000060EA00006F
:10D0500000000000000000000000000000000000D0
:10D0600000000000000000000000000000000000C0
:10D0700002000000000000000000000000000000AE
:10D0800000000000000000000000000000000000A0
:10D090000000000000000000000000000000000090
:10D0A0000000000000000000000000000000000080
:04D0B0000024F40064
:040000050001B0C185
:00000001FF
